:100000000C945D000C9485000C9485000C94850084
:100010000C9485000C9485000C9485000C9485004C
:100020000C9485000C9485000C9485000C9485003C
:100030000C9485000C9485000C9485000C9485002C
:100040000C949A020C9485000C94E1050C94130610
:100050000C9485000C9485000C9485000C9485000C
:100060000C9485000C94850000000008000201003B
:100070000003040700000000000000000102040863
:100080001020408001020408102001020408102002
:10009000040404040404040402020202020203032E
:1000A0000303030300000000250028002B000000CC
:1000B0000000240027002A00430611241FBECFEFB2
:1000C000D8E0DEBFCDBF11E0A0E0B1E0E8E8F9E1A3
:1000D00002C005900D92A235B107D9F722E0A2E542
:1000E000B1E001C01D92A430B207E1F710E0CAEB05
:1000F000D0E004C02297FE010E94F209C83BD1075C
:10010000C9F70E9487060C94C20C0C940000BC0135
:1001100083E691E00C94D406833759F0853759F083
:10012000843689F489E00E94A50360E070E08AE0EB
:1001300008C060E070E08AE00E94A50360E070E023
:1001400089E00C94A503089560E070E083E70C94C7
:100150008C00AF92BF92CF92DF92EF92FF920F93FB
:100160001F938EE00E948803BC01882777FD80954D
:10017000982F1F921F921F9224E62F93A12CB12C2F
:100180006501E12C14E0F12E00E010E020E030E009
:10019000A9010E94E8070F900F900F900F90CB01DC
:1001A0001F910F91FF90EF90DF90CF90BF90AF9095
:1001B00008950E94A90090935901809358010895D1
:1001C0000F931F93CF93DF938C010E94A900EC0142
:1001D00090935501809354010E94A900801B910BBC
:1001E000181619062CF40E94A900801B910B06C05A
:1001F0000E94A9009801281B390BC9010297E4F15C
:10020000D0935501C09354016BE071E083E691E017
:100210000E94E2064AE050E0BE0183E691E00E94BF
:1002200088070E94A900EC0180915401909155012A
:100230009E01281B390BC9014D96CB9768F6C01754
:10024000D10734F46FEF70E085E70E948C00C4CFD3
:100250000C171D0774F4C336D10559F06FEF70E029
:1002600089E00E94A50360E070E08AE00E94A50397
:10027000B3CF0E94A400B0CF0E94A400DF91CF9121
:100280001F910F910C94D900CF92DF92EF92FF92C1
:100290000F931F93CF93DF93CDB7DEB762970FB65F
:1002A000F894DEBF0FBECDBF8091520190915301F3
:1002B000019709F08AC00E94A9008C010E94E40203
:1002C00080915801909159019801281B390BC9015F
:1002D000265F3F4F25313105C8F5892BB9F1C09014
:1002E0005601D0905701EE24D7FCE094FE2C0E94DA
:1002F000E402C616D706E806F906A9F0C090560132
:10030000D0905701EE24D7FCE094FE2C0E94E4022A
:10031000C61AD70AE80AF90A35E0C316D104E1047F
:10032000F104F8F413C00E94E402C0905601D0908A
:100330005701EE24D7FCE094FE2C6C197D098E0940
:100340009F09653071058105910558F41093590195
:10035000009358010E94E402709357016093560184
:1003600034C04AE0B801CE0107960E94EB0868E16C
:1003700071E0CE0101960E949D08BE01695F7F4F2A
:10038000CE0101960E945609BC01CE010D960E9435
:10039000CA08CE0101960E942F08CE0107960E943E
:1003A0002F08BE01635F7F4FCE0101960E94CA08ED
:1003B000CE0101960E948700CE0101960E942F086F
:1003C000CE010D960E942F08C1CF62960FB6F89409
:1003D000DEBF0FBECDBFDF91CF911F910F91FF9078
:1003E000EF90DF90CF90089560E08EE00E942D04A2
:1003F00061E08AE00E942D0461E089E00E942D0402
:1004000026E040E855E260E070E083E691E00E947B
:100410007F050C94D900CF92DF92EF92FF920F9359
:100420001F93CF93DF9300D000D000D0CDB7DEB7BD
:1004300083E691E00E949C04181619060CF061C036
:100440008091520190915301892B09F05AC063E6C3
:1004500071E0CE0101960E94CE0763E271E0CE0109
:1004600001960E946909811108C06BE171E0CE011B
:1004700001960E946909882399F06AE070E080E0A3
:1004800090E00E9413036FE171E083E691E00E9427
:10049000E20681E090E0909353018093520129C0DD
:1004A00081E090E09093530180935201CE01019638
:1004B0000E9488096B017C018B0161157105F1F0C7
:1004C0000E94A90008171907C9F084E6C816D104CC
:1004D000A8F466E271E083E691E00E94E2064AE059
:1004E00050E0B60183E691E00E948807C6010E94B1
:1004F000E000CE0101960E942F0803C00E94A900CF
:10050000F8CF26960FB6F894DEBF0FBECDBFDF91B1
:10051000CF911F910F91FF90EF90DF90CF900895B2
:100520000E940B020E9444016AE070E080E090E0CB
:100530000C9413031F920F920FB60F9211242F9356
:100540003F938F939F93AF93BF9380915B01909163
:100550005C01A0915D01B0915E0130915A0123E0F0
:10056000230F2D3720F40196A11DB11D05C026E8EB
:10057000230F0296A11DB11D20935A0180935B01A8
:1005800090935C01A0935D01B0935E0180915F0147
:1005900090916001A0916101B09162010196A11D4D
:1005A000B11D80935F0190936001A0936101B093AE
:1005B0006201BF91AF919F918F913F912F910F90C9
:1005C0000FBE0F901F9018952FB7F89460915B01A4
:1005D00070915C0180915D0190915E012FBF089543
:1005E0003FB7F89480915F0190916001A091610103
:1005F000B091620126B5A89B05C02F3F19F0019666
:10060000A11DB11D3FBF6627782F892F9A2F620F3A
:10061000711D811D911D42E0660F771F881F991F74
:100620004A95D1F708958F929F92AF92BF92CF9241
:10063000DF92EF92FF926B017C010E94F0024B016E
:100640005C01C114D104E104F104F1F00E949309AA
:100650000E94F002681979098A099B09683E734073
:100660008105910570F321E0C21AD108E108F10873
:1006700088EE880E83E0981EA11CB11CC114D10421
:10068000E104F10429F7DDCFFF90EF90DF90CF90E8
:10069000BF90AF909F908F900895789484B58260BA
:1006A00084BD84B5816084BD85B5826085BD85B516
:1006B000816085BDEEE6F0E0808181608083E1E8C5
:1006C000F0E01082808182608083808181608083FD
:1006D000E0E8F0E0808181608083E1EBF0E0808100
:1006E00084608083E0EBF0E0808181608083EAE7D2
:1006F000F0E080818460808380818260808380815B
:10070000816080838081806880831092C100089519
:100710008E3008F08E50877020910A0190E4299F56
:1007200090011124822B80937C0080917A00806458
:1007300080937A0080917A0086FDFCCF80917800CA
:100740002091790090E0922B08951F93CF93DF932F
:10075000182FEB0161E00E942D04209711F460E056
:1007600004C0CF3FD10539F461E0812FDF91CF91F3
:100770001F910C946604E12FF0E0E859FF4FE491DB
:10078000E330F9F048F4E130B9F0E230A1F584B596
:10079000806284BDC8BD34C0E730E9F0E83019F1AB
:1007A000E43049F580918000806280938000D0938E
:1007B0008B00C0938A0024C084B5806884BDC7BD07
:1007C0001FC080918000806880938000D093890052
:1007D000C093880015C08091B00080688093B000FD
:1007E000C093B3000DC08091B00080628093B000D0
:1007F000C093B40005C0C038D1050CF0B5CFAFCF61
:10080000DF91CF911F910895833081F028F48130DA
:1008100099F08230A1F008958730A9F08830B9F0BE
:100820008430D1F4809180008F7D03C0809180005E
:100830008F7780938000089584B58F7702C084B548
:100840008F7D84BD08958091B0008F7703C0809123
:10085000B0008F7D8093B0000895CF93DF9390E038
:10086000FC01E458FF4F2491FC01E057FF4F8491B5
:10087000882349F190E0880F991FFC01E255FF4F52
:10088000A591B4918C559F4FFC01C591D4919FB710
:10089000611108C0F8948C91209582238C938881F3
:1008A00082230AC0623051F4F8948C91322F309533
:1008B00083238C938881822B888304C0F8948C9145
:1008C000822B8C939FBFDF91CF9108950F931F933D
:1008D000CF93DF931F92CDB7DEB7282F30E0F90119
:1008E000E859FF4F8491F901E458FF4F1491F90141
:1008F000E057FF4F04910023C9F0882321F069835A
:100900000E9404046981E02FF0E0EE0FFF1FEC5518
:10091000FF4FA591B4919FB7F8948C91611103C0DA
:100920001095812301C0812B8C939FBF0F90DF9185
:10093000CF911F910F910895FC01818D228D90E040
:10094000805C9F4F821B91098F7399270895FC014A
:10095000918D828D981731F0828DE80FF11D858D74
:1009600090E008958FEF9FEF0895FC01918D828DA7
:10097000981761F0828DDF01A80FB11D5D968C91F3
:10098000928D9F5F9F73928F90E008958FEF9FEFFE
:10099000089589E396E0892B49F080E090E0892B67
:1009A00029F00E94390681110C9400000895FC0181
:1009B000848DDF01A80FB11DA35ABF4F2C91848DE8
:1009C00090E001968F739927848FA689B7892C931D
:1009D000A089B1898C9180648C93938D848D9813B8
:1009E00006C00288F389E02D80818F7D8083089581
:1009F000CF93DF93EC01888D8823C9F0EA89FB89C6
:100A0000808185FD05C0A889B9898C9186FD0FC0BC
:100A10000FB607FCF5CF808185FFF2CFA889B98991
:100A20008C9185FFEDCFCE010E94D704E7CFDF91F7
:100A3000CF910895CF92DF92FF920F931F93CF93A0
:100A4000DF931F92CDB7DEB76C0181E0D6015896D7
:100A50008C9358975B969C915B975C968C915C9776
:100A6000981307C05096ED91FC915197808185FDB8
:100A70002EC0F601038D10E00F5F1F4F0F7311277B
:100A8000F02EF601848DF81211C00FB607FCF9CFD5
:100A9000D6015096ED91FC915197808185FFF1CF61
:100AA000C60169830E94D7046981EBCF838DE80F6B
:100AB000F11DE35AFF4F6083D6015B960C935B9761
:100AC0005296ED91FC915397808180620CC0D601C3
:100AD0005696ED91FC91579760835096ED91FC915D
:100AE000519780818064808381E090E00F90DF9156
:100AF000CF911F910F91FF90DF90CF900895BF92FB
:100B0000CF92DF92EF92FF92CF93DF93EC016A01D5
:100B10007B01B22EE889F98982E08083411581EE5C
:100B2000580761057105A1F060E079E08DE390E080
:100B3000A70196010E94A4092150310941095109D8
:100B40005695479537952795211580E1380798F0F8
:100B5000E889F989108260E874E88EE190E0A701E5
:100B600096010E94A4092150310941095109569565
:100B7000479537952795EC85FD853083EE85FF8574
:100B80002083188EEC89FD89B082EA89FB898081F7
:100B900080618083EA89FB89808188608083EA891B
:100BA000FB89808180688083EA89FB8980818F7DD1
:100BB0008083DF91CF91FF90EF90DF90CF90BF9037
:100BC00008951F920F920FB60F9211242F938F93B7
:100BD0009F93EF93FF93E0917301F09174018081F3
:100BE000E0917901F0917A0182FD12C090818091AB
:100BF0007C018F5F8F7320917D01821751F0E0910E
:100C00007C01F0E0ED59FE4F958F80937C0101C08F
:100C10008081FF91EF919F918F912F910F900FBE47
:100C20000F901F9018951F920F920FB60F921124DC
:100C30002F933F934F935F936F937F938F939F93E4
:100C4000AF93BF93EF93FF9383E691E00E94D704A5
:100C5000FF91EF91BF91AF919F918F917F916F9194
:100C60005F914F913F912F910F900FBE0F901F906A
:100C7000189583E691E00E949C0421E0892B09F4F9
:100C800020E0822F0895109266011092650188EE8F
:100C900093E0A0E0B0E08093670190936801A09397
:100CA0006901B0936A0184E391E0909364018093B9
:100CB000630185EC90E09093700180936F0184EC68
:100CC00090E0909372018093710180EC90E090939A
:100CD00074018093730181EC90E09093760180938E
:100CE000750182EC90E0909378018093770186EC17
:100CF00090E090937A018093790110927C01109298
:100D00007D0110927E0110927F01089508950E9446
:100D10004D030E9486060E94F401C9ECD4E00E94B3
:100D200090022097E1F30E94C904F9CFCF92DF929D
:100D3000EF92FF920F931F93CF93DF937C016A0191
:100D4000EB0100E010E00C151D0571F06991D70171
:100D5000ED91FC910190F081E02DC7010995892B5F
:100D600019F00F5F1F4FEFCFC801DF91CF911F9197
:100D70000F91FF90EF90DF90CF900895611571056E
:100D800081F0DB010D900020E9F7AD0141505109E0
:100D9000461B570BDC01ED91FC910280F381E02DA5
:100DA000099480E090E00895DC01ED91FC91DB0175
:100DB00014964D915C9115976D917C910280F38111
:100DC000E02D09940C94BE06DC01ED91FC9101909C
:100DD000F081E02D099460E471E00C94BE068F92DE
:100DE0009F92AF92BF92DF92EF92FF920F931F9369
:100DF000CF93DF93CDB7DEB7A1970FB6F894DEBFE0
:100E00000FBECDBF7C01F42FD52ECB0119A222300D
:100E100008F42AE08E010F5D1F4F822E912CA12C29
:100E2000B12C6F2F7D2DA50194010E94A409F22FF2
:100E3000D32ECA01015011096A3014F4E0E301C055
:100E4000E7E3E60FD801EC93232B242B252B49F75E
:100E5000B801C7010E94BE06A1960FB6F894DEBF86
:100E60000FBECDBFDF91CF911F910F91FF90EF90FB
:100E7000DF90BF90AF909F908F900895CF92DF92B8
:100E8000EF92FF920F931F93CF93DF93EC016A01D0
:100E90007B012115310579F4E881F9810190F08118
:100EA000E02D642FDF91CF911F910F91FF90EF9074
:100EB000DF90CF9009942A303105E9F477FF1AC00A
:100EC0006DE20E94E4068C0144275527BA014C19B3
:100ED0005D096E097F092AE0CE010E94EF06800FAE
:100EE000911FDF91CF911F910F91FF90EF90DF90B5
:100EF000CF9008952AE0B701A601CE01DF91CF91EE
:100F00001F910F91FF90EF90DF90CF900C94EF0620
:100F10000F931F93CF93DF93EC019A01AB016627E8
:100F200057FD6095762F0E943E078C01CE010E94EE
:100F3000EB06800F911FDF91CF911F910F910895C4
:100F40000F931F93CF93DF93EC010E94E402688715
:100F500079878A879B87E881F9810680F781E02D70
:100F6000CE01099597FF15C00E94E40208851985F6
:100F70002A853B85601B710B820B930B0C811D81B5
:100F80002E813F81601771078207930720F38FEF4F
:100F90009FEFDF91CF911F910F9108950F931F93B2
:100FA000CF93DF93EC018B0162E471E00E949D0816
:100FB000C8010E94A00797FD05C0682FCE010E94BE
:100FC0004309F6CFCE01DF91CF911F910F91089584
:100FD0004F925F926F927F92AF92BF92CF92DF92C9
:100FE000EF92FF920F931F93CF93DF93CDB7DEB7AE
:100FF00029013A01621B730B840B950B29893A89ED
:101000004B895C892A193B094C095D09298B3A8B6C
:101010004B8B5C8B9B01AC0169897A898B899C899C
:101020000E949409E418F50806091709A801970118
:101030000E94C6092A0D3B1D4C1D5D1DCA01B90148
:10104000DF91CF911F910F91FF90EF90DF90CF90A4
:10105000BF90AF907F906F905F904F900895FC018C
:10106000808191810C949D0ACF93DF93EC0188815C
:101070009981009711F00E949D0A198218821D82A1
:101080001C821B821A82DF91CF9108950F931F93C8
:10109000CF93DF93EC018B016F5F7F4F8881998144
:1010A0000E942C0B009731F0998388831B830A835D
:1010B00081E001C080E0DF91CF911F910F910895F1
:1010C000CF93DF93EC0188819981892B29F08A8164
:1010D0009B818617970760F4CE010E9446088823FB
:1010E00041F08C819D81892B19F4E881F98110826E
:1010F00081E0DF91CF910895EF92FF920F931F93BC
:10110000CF93DF93EC017B018A01BA010E94600852
:10111000811104C0CE010E94340807C01D830C83D6
:10112000B701888199810E942F0CCE01DF91CF9168
:101130001F910F91FF90EF900895FC011182108292
:1011400013821282158214826115710559F0FB0118
:1011500001900020E9F7AF0141505109461B570BA0
:101160000C947C080895CF93DF93EC01FB01861764
:10117000970761F0608171816115710529F04481E3
:1011800055810E947C0802C00E943408CE01DF9184
:10119000CF910895FC011182108213821282158270
:1011A00014820C94B308CF93DF93EC0161157105A1
:1011B00061F0FB0101900020E9F7AF0141505109B6
:1011C000461B570B0E947C0802C00E943408CE01C7
:1011D000DF91CF9108950F931F93CF93DF93CDB7F6
:1011E000DEB762970FB6F894DEBF0FBECDBF8C019D
:1011F000CB01F801118210821382128215821482AF
:1012000050E0BE016F5F7F4F0E94360CBE016F5FE2
:101210007F4FC8010E94D30862960FB6F894DEBFD4
:101220000FBECDBFDF91CF911F910F910895EF9227
:10123000FF920F931F93CF93DF93EC017B010C81FF
:101240001D816115710511F480E016C0411551052D
:1012500091F0040F151FB8010E9460088823A1F3C4
:10126000288139818C819D81B701820F931F0E9453
:101270002F0C1D830C8381E0DF91CF911F910F9183
:10128000FF90EF900895CF93DF9300D0CDB7DEB7F6
:1012900069831A8241E050E0BE016F5F7F4F0E9478
:1012A00017090F900F90DF91CF910895CF93DF939F
:1012B000EC01FB0144815581608171810E94170915
:1012C000811103C0CE010E943408CE01DF91CF917D
:1012D0000895FC0124813581232B31F421E061152F
:1012E0007105A1F0FB0108C0FC01808191816115AD
:1012F000710531F421E0FC018081882339F005C0BB
:101300000E94260C21E0892B09F020E0822F08950D
:10131000FC0180819181009711F00C94F60B60E044
:1013200070E0CB0108950895DB018F939F930E9495
:10133000E509BF91AF91A29F800D911DA39F900DD4
:10134000B29F900D11240895A1E21A2EAA1BBB1B77
:10135000FD010DC0AA1FBB1FEE1FFF1FA217B30781
:10136000E407F50720F0A21BB30BE40BF50B661F97
:10137000771F881F991F1A9469F76095709580955B
:1013800090959B01AC01BD01CF010895052E97FBFF
:101390001EF400940E94DD0957FD07D00E94A409A5
:1013A00007FC03D04EF40C94DD0950954095309520
:1013B00021953F4F4F4F5F4F0895909580957095C1
:1013C00061957F4F8F4F9F4F08950E94F609A59F0B
:1013D000900DB49F900DA49F800D911D1124089530
:1013E000EE0FFF1F0590F491E02D0994A29FB0012C
:1013F000B39FC001A39F700D811D1124911DB29F49
:10140000700D811D1124911D0895CF93DF938230BB
:10141000910510F482E090E0E0910202F091030265
:1014200020E030E0A0E0B0E0309739F14081518118
:1014300048175907B8F04817590771F4828193810A
:10144000109729F013969C938E9312972CC090932B
:1014500003028093020227C02115310531F04217A3
:10146000530718F0A901DB0101C0EF019A01BD018A
:10147000DF010280F381E02DD7CF21153105F9F08E
:10148000281B390B2430310580F48A819B8161153A
:10149000710521F0FB019383828304C090930302C2
:1014A00080930202FE01329644C0FE01E20FF31F58
:1014B0008193919322503109398328833AC0209136
:1014C000000230910102232B41F42091020130915E
:1014D000030130930102209300022091000130911A
:1014E00001012115310541F42DB73EB740910401AA
:1014F00050910501241B350BE0910002F09101028F
:10150000E217F307A0F42E1B3F0B2817390778F0DA
:10151000AC014E5F5F4F2417350748F04E0F5F1F39
:1015200050930102409300028193919302C0E0E046
:10153000F0E0CF01DF91CF910895CF93DF93009733
:1015400009F487C0FC01329713821282C091020213
:10155000D0910302209781F420813181280F391F17
:1015600080910002909101028217930779F5F09320
:101570000102E09300026DC0DE0120E030E0AE1712
:10158000BF0750F412964D915C9113979D01411540
:10159000510509F1DA01F3CFB383A2834081518170
:1015A000840F951F8A179B0771F48D919C91119759
:1015B000840F951F02969183808312968D919C9142
:1015C0001397938382832115310529F4F093030245
:1015D000E09302023EC0D9011396FC93EE9312975A
:1015E0004D915D91A40FB51FEA17FB0779F4808137
:1015F0009181840F951F0296D90111969C938E9329
:101600008281938113969C938E931297E0E0F0E091
:101610008A819B81009719F0FE01EC01F9CFCE0180
:10162000029628813981820F931F20910002309108
:1016300001022817390769F4309729F41092030240
:101640001092020202C013821282D0930102C09350
:101650000002DF91CF910895A0E0B0E0E2E3FBE06B
:101660000C948F0CEC01CB01209719F40E94050A11
:10167000B8C0FE01E60FF71F9E0122503109E217A4
:10168000F30708F4ACC0D9010D911C91119706170E
:101690001707B8F00530110508F49FC0A8014450A1
:1016A00051094617570708F498C002501109061B44
:1016B000170B019311936D937C93CF010E949D0AA8
:1016C0008CC05B01A01AB10A4E01800E911EA09140
:1016D0000202B0910302612C712C60E070E010975F
:1016E00009F449C0A815B905C9F5ED90FC9011970A
:1016F000670142E0C40ED11CCA14DB0478F1470133
:101700008A189B08640142E0C40ED11C1296BC905A
:1017100012971396AC91B5E0CB16D10440F0B2828B
:10172000A38391828082D9018D939C9309C00E5F1F
:101730001F4F0E0D1F1DF90111830083EB2DFA2F92
:101740006115710531F0DB011396FC93EE9312974E
:1017500044C0F0930302E09302023FC06D917C917C
:1017600011976616770608F43B01BD0112960D909D
:10177000BC91A02DB4CF6091000270910102681558
:101780007905E9F468167906D0F44091000150918A
:1017900001014115510541F44DB75EB76091040157
:1017A00070910501461B570BE417F507C0F4F09341
:1017B0000102E0930002F901918380830EC00E9430
:1017C000050A7C01009759F0A801BE010E941D0C7A
:1017D000CE010E949D0AC70104C0CE0102C080E074
:1017E00090E0CDB7DEB7EEE00C94AB0C1F93FC019C
:1017F00099278827BC01E89411911032E9F3193038
:1018000010F01E30C8F31B3251F01D3249F46894B9
:1018100006C00E944C0C610F711D811D911D11911C
:1018200010531A30B0F33EF4909580957095619501
:101830007F4F8F4F9F4F1F910895FB01DC0102C026
:1018400001900D9241505040D8F70895FB01DC0102
:101850008D91019080190110D9F3990B0895FB0126
:10186000DC0101900D920020E1F708954532510509
:1018700020F4423010F00C94410CFB011082CB019B
:101880000895BB274A3031F4992322F4BDE29095A4
:1018900081959F4F0C94620C592F482F372F262F7C
:1018A000660F771F881F991F660F771F881F991F64
:1018B000620F731F841F951F660F771F881F991F64
:1018C0000895BB27FB015527AA27880F991FAA1F38
:1018D000A41710F0A41B83955051B9F7A05DAA334B
:1018E00008F0A95DA193009779F7B111B193119216
:1018F000CB010C947B0CDC01FC01672F71917723E9
:10190000E1F7329704C07C916D9370836291AE17BA
:10191000BF07C8F308952F923F924F925F926F9244
:101920007F928F929F92AF92BF92CF92DF92EF926F
:10193000FF920F931F93CF93DF93CDB7DEB7CA1BF0
:10194000DB0B0FB6F894DEBF0FBECDBF09942A881B
:10195000398848885F846E847D848C849B84AA84C3
:10196000B984C884DF80EE80FD800C811B81AA8150
:10197000B981CE0FD11D0FB6F894DEBF0FBECDBF1B
:08198000ED010895F894FFCF7A
:1019880000000402800001000000014375727265C6
:101998006E7420706F73200053310043520A004167
:1019A800434B00435200476F696E6720746F2000F5
:1019B800000000001A0596069C04B504A704F80464
:1019C8000D0A006E616E00696E66006F7666002E05
:0219D80000000D
:00000001FF
