:100000000C9435000C945D000C945D000C945D0024
:100010000C945D000C945D000C945D000C945D00EC
:100020000C945D000C945D000C945D000C945D00DC
:100030000C945D000C945D000C945D000C945D00CC
:100040000C949D020C945D000C946B020C94450280
:100050000C945D000C945D000C945D000C945D00AC
:100060000C945D000C945D00E70211241FBECFEFDD
:10007000D8E0DEBFCDBF22E0AEE2B1E001C01D920C
:10008000A032B207E1F711E0A0E0B1E0E6E0FEE067
:1000900002C005900D92AE32B107D9F710E0C5E36A
:1000A000D0E004C02197FE010E94EF04C433D107C1
:1000B000C9F70E9426030C9401070C940000E7E3A3
:1000C000F1E0A089B18982E08C93A485B5851C926A
:1000D000A685B7858FEC8C93108EA489B58986E0B0
:1000E0008C93A289B3898C9180618C93A289B38906
:1000F0008C9188608C93A289B3898C9180688C9351
:100100000288F389E02D80818F7D80830895CF92CE
:10011000DF92EF92FF920F931F932FB7F894C09046
:100120003301D0903401E0903501F09036012FBFBB
:10013000DC01CB018C0D9D1DAE1DBF1D4FB7F8948A
:100140000091330110913401209135013091360135
:100150004FBF0C151D052E053F0528F08017910790
:10016000A207B30758F71F910F91FF90EF90DF9010
:10017000CF900895CF92DF92EF92FF920F931F934B
:10018000CF93DF936C017A018B01C0E0D0E0CE15F4
:10019000DF0589F0D8016D918D01D601ED91FC91BB
:1001A0000190F081E02DC6010995892B11F47E01A3
:1001B00002C02196ECCFC701DF91CF911F910F9123
:1001C000FF90EF90DF90CF900895089580E090E049
:1001D0000895FC01538D448D252F30E0842F90E04D
:1001E000821B930B541710F0CF9608950197089532
:1001F000FC01918D828D981761F0828DDF01A80F2F
:10020000B11D5D968C91928D9F5F9F73928F90E050
:1002100008958FEF9FEF0895FC01918D828D9817BF
:1002200031F0828DE80FF11D858D90E008958FEFFC
:100230009FEF0895FC01918D228D892F90E0805CC5
:100240009F4F821B91098F739927089587E391E04F
:100250000E941A0121E0892B09F420E0822F0895E1
:10026000FC01848DDF01A80FB11DA35ABF4F2C9153
:10027000848D90E001968F739927848FA689B78922
:100280002C93A089B1898C9180648C93938D848DFB
:10029000981306C00288F389E02D80818F7D8083CA
:1002A0000895EF92FF920F931F93CF93DF93EC018A
:1002B00081E0888F9B8D8C8D981305C0E889F98922
:1002C000808185FD24C0F62E0B8D10E00F5F1F4F3F
:1002D0000F731127E02E8C8DE8120CC00FB607FCAF
:1002E000FACFE889F989808185FFF5CFCE010E9498
:1002F0003001F1CF8B8DFE01E80FF11DE35AFF4F66
:10030000F0820B8FEA89FB898081806207C0EE89C9
:10031000FF896083E889F98980818064808381E036
:1003200090E0DF91CF911F910F91FF90EF90089592
:10033000CF93DF93EC01888D8823C9F0EA89FB898C
:10034000808185FD05C0A889B9898C9186FD0FC083
:100350000FB607FCF5CF808185FFF2CFA889B98958
:100360008C9185FFEDCFCE010E943001E7CFDF9168
:10037000CF91089580E090E0892B29F00E9426011A
:1003800081110C94000008953FB7F89480912F01DB
:1003900090913001A0913101B091320126B5A89B16
:1003A00005C02F3F19F00196A11DB11D3FBFBA2F07
:1003B000A92F982F8827820F911DA11DB11DBC0167
:1003C000CD0142E0660F771F881F991F4A95D1F72C
:1003D00008950E94EC060F931F93CF93DF93EC01D7
:1003E00088819981009729F02A813B812617370758
:1003F00088F48B016F5F7F4F0E942206009761F0A7
:10040000998388831B830A832C813D81232B11F4DC
:10041000FC01108281E001C080E0DF91CF911F914B
:100420000F910895CF93DF93EC0188819981009714
:1004300011F00E948A05198218821D821C821B827B
:100440001A82DF91CF910895EF92FF920F931F933D
:10045000CF93DF93EC017B018A01BA010E94EB018B
:10046000811104C0CE010E94120207C01D830C83BB
:10047000B701888199810E94FA06CE01DF91CF9160
:100480001F910F91FF90EF9008951F920F920FB65A
:100490000F9211242F933F934F935F936F937F930A
:1004A0008F939F93AF93BF93EF93FF9387E391E075
:1004B0000E943001FF91EF91BF91AF919F918F9179
:1004C0007F916F915F914F913F912F910F900FBE50
:1004D0000F901F9018951F920F920FB60F92112434
:1004E0002F938F939F93EF93FF93E0914701F091A8
:1004F00048018081E0914D01F0914E0182FD12C0D2
:100500009081809150018F5F8F73209151018217EC
:1005100051F0E0915001F0E0E95CFE4F958F80933F
:10052000500101C08081FF91EF919F918F912F9198
:100530000F900FBE0F901F9018951F920F920FB63D
:100540000F9211242F933F938F939F93AF93BF9359
:100550008091330190913401A0913501B091360121
:1005600030912E0123E0230F2D3720F40196A11D99
:10057000B11D05C026E8230F0296A11DB11D2093D1
:100580002E018093330190933401A0933501B093F1
:10059000360180912F0190913001A0913101B091ED
:1005A00032010196A11DB11D80932F01909330015E
:1005B000A0933101B0933201BF91AF919F918F9180
:1005C0003F912F910F900FBE0F901F901895E7E36A
:1005D000F1E01382128288EE93E0A0E0B0E0848321
:1005E0009583A683B7838AE091E09183808385EC2D
:1005F00090E09587848784EC90E09787868780ECED
:1006000090E0918B808B81EC90E0938B828B82ECDD
:1006100090E0958B848B86EC90E0978B868B118E87
:10062000128E138E148EE4EDF1E01682178210867E
:100630001186128613861486158616861786108AEA
:10064000118A128A138A148A158A0895CF93DF9328
:10065000CDB7DEB76E970FB6F894DEBF0FBECDBF35
:10066000789484B5826084BD84B5816084BD85B58D
:10067000826085BD85B5816085BD80916E00816099
:1006800080936E001092810080918100826080933F
:100690008100809181008160809381008091800041
:1006A0008160809380008091B10084608093B1006C
:1006B0008091B00081608093B00080917A00846066
:1006C00080937A0080917A00826080937A00809192
:1006D0007A00816080937A0080917A0080688093AC
:1006E0007A001092C1001092180210921902109212
:1006F0001A0210921B021092D6011092D70110928A
:10070000D8011092D90168EB7BE080E090E00E9474
:10071000870087E391E090931702809316020E946E
:100720005F002FB7F8948091330190913401A0912C
:100730003501B09136012FBF8093D6019093D70138
:10074000A093D801B093D90180911602909117021D
:10075000DC01ED91FC910280F381E02D41E150E05C
:1007600068E171E009956AE070E080E090E00E9445
:10077000870081E08093EA010E945F001A8E198E43
:100780001C8E1B8E1E8E1D8E42E050E06AE271E0D0
:10079000CE0149960E942402EE24E394F12C8E01AE
:1007A0000F5F1F4F1C8A1B8A1E8A1D8A188E1F8A84
:1007B0004AE0B801C7010E948304F80101900020BB
:1007C000E9F73197AF01401B510BB801CE014396B9
:1007D0000E9424021A8219821C821B821E821D82A0
:1007E00042E050E06AE271E0C8010E9424028F8971
:1007F000988DAB88BC88CD80DE80A114B10409F44B
:100800007EC00097A1F0C80ED91EB601C8010E9493
:10081000EB01882309F473C029813A818D819E817F
:10082000B501820F931F0E94FA06DE82CD82698194
:100830007A816115710539F04D815E81CE0149964D
:100840000E94240204C0CE0149960E9412028981AE
:100850009A810E948A058B899C890E948A054D8D08
:100860005E8D698D7A8D87E391E00E94BA0042E047
:1008700050E067E271E087E391E00E94BA0040E057
:1008800050E069E271E0CE0149960E942402B4E68C
:10089000EB16F10421F02FEFE21AF20A03C0EE2466
:1008A000E394F12C0E94C4012B013C0184EF882EBB
:1008B00099249394A12CB12C0E94C401DC01CB019A
:1008C00084199509A609B709883E9340A105B10589
:1008D00080F081E0881A9108A108B108A8EE4A0EBC
:1008E000A3E05A1E611C711C81149104A104B1047F
:1008F00019F781149104A104B104F1F653CFC80192
:100900000E94120294CFBB274A3031F4992322F47B
:10091000BDE2909581959F4F0C948F04BB27FB01FE
:100920005527AA27880F991FAA1FA41710F0A41BE8
:1009300083955051B9F7A05DAA3308F0A95DA19342
:10094000009779F7B111B1931192CB010C94A804DF
:10095000DC01FC01672F71917723E1F7329704C026
:100960007C916D9370836291AE17BF07C8F30895B1
:100970002F923F924F925F926F927F928F929F92AF
:10098000AF92BF92CF92DF92EF92FF920F931F939D
:10099000CF93DF93CDB7DEB7CA1BDB0B0FB6F8944E
:1009A000DEBF0FBECDBF09942A88398848885F848E
:1009B0006E847D848C849B84AA84B984C884DF80FF
:1009C000EE80FD800C811B81AA81B981CE0FD11DE3
:1009D0000FB6F894DEBF0FBECDBFED010895EE0F48
:1009E000FF1F0590F491E02D0994CF93DF9382309F
:1009F000910510F482E090E0E0911E02F0911F0258
:100A000020E030E0C0E0D0E0309711F1408151812A
:100A100048175907C0F04817590761F4828193813C
:100A2000209719F09B838A832BC090931F02809399
:100A30001E0226C02115310519F04217530718F47C
:100A40009A01BE01DF01EF010280F381E02DDCCFCE
:100A50002115310509F1281B390B2430310590F49B
:100A600012968D919C9113976115710521F0FB01F0
:100A70009383828304C090931F0280931E02FD0122
:100A8000329644C0FD01E20FF31F819391932250EF
:100A900031092D933C933AC020911C0230911D02E4
:100AA000232B41F4209102013091030130931D0268
:100AB00020931C0220910001309101012115310584
:100AC00041F42DB73EB74091040150910501241B1C
:100AD000350BE0911C02F0911D02E217F307A0F420
:100AE0002E1B3F0B2817390778F0AC014E5F5F4F84
:100AF0002417350748F04E0F5F1F50931D02409397
:100B00001C028193919302C0E0E0F0E0CF01DF91FD
:100B1000CF9108950F931F93CF93DF93009709F41C
:100B20008CC0FC0132971382128200911E02109138
:100B30001F020115110581F420813181820F931F5D
:100B400020911C0230911D022817390779F5F09386
:100B50001D02E0931C0271C0D80140E050E0AE17C6
:100B6000BF0750F412962D913C911397AD012115BA
:100B7000310509F1D901F3CF9D01DA0133832283D5
:100B800060817181860F971F8217930769F4EC01CA
:100B900028813981260F371F2E5F3F4F31832083F5
:100BA0008A819B8193838283452B29F4F0931F02D2
:100BB000E0931E0242C01396FC93EE931297ED0150
:100BC000499159919E01240F351FE217F30771F4E3
:100BD00080819181840F951F029611969C938E932C
:100BE0008281938113969C938E931297E0E0F0E0BC
:100BF000D80112968D919C911397009719F0F801E6
:100C00008C01F6CF8D919C9198012E5F3F4F820F02
:100C1000931F20911C0230911D022817390769F497
:100C2000309729F410921F0210921E0202C0138204
:100C3000128210931D0200931C02DF91CF911F912D
:100C40000F910895A0E0B0E0E8E2F6E00C94BC0457
:100C5000EC01009721F4CB010E94F504B8C0FC011F
:100C6000E60FF71F9C0122503109E217F30708F441
:100C7000ACC0D9010D911C91119706171707B0F060
:100C80000530110508F49FC0C8010497861797071F
:100C900008F499C002501109061B170B0193119318
:100CA0006D937C93CF010E948A058DC05B01A01AD1
:100CB000B10A4C01800E911EA0911E02B0911F023C
:100CC00040E050E0E12CF12C109709F44AC0A8153F
:100CD000B905D1F56D907C901197630182E0C80E43
:100CE000D11CCA14DB0480F1A3014A195B096A0113
:100CF00082E0C80ED11C1296BC9012971396AC914C
:100D0000B5E0CB16D10440F0B282A3835183408377
:100D1000D9016D937C930AC00E5F1F4FC301800FF2
:100D2000911FF90191838083EB2DFA2FE114F104D7
:100D300031F0D7011396FC93EE93129744C0F093D1
:100D40001F02E0931E023FC08D919C91119748179E
:100D5000590708F4AC017D0112960D90BC91A02DAD
:100D6000B3CF80911C0290911D0288159905E1F482
:100D700046175707C8F48091000190910101009730
:100D800041F48DB79EB74091040150910501841B39
:100D9000950BE817F907C8F4F0931D02E0931C02C5
:100DA000F901718360830FC0CB010E94F5047C01BF
:100DB000009759F0A801BE010E94F106CE010E94E1
:100DC0008A05C70104C0CE0102C080E090E0CDB723
:100DD000DEB7EEE00C94D80481E090E0F8940C9437
:100DE0000107FB01DC0102C001900D92415050400F
:100DF000D8F70895FB01DC0101900D920020E1F786
:060E00000895F894FFCFF5
:100E0600000020028000000000005101BA00E90045
:100E160098011A01F8000C01564D4450565F317C7A
:0E0E2600315F564D4450560D0A005331000006
:107E0000112484B714BE81FFF0D085E080938100F7
:107E100082E08093C00088E18093C10086E0809377
:107E2000C20080E18093C4008EE0C9D0259A86E02C
:107E300020E33CEF91E0309385002093840096BBD3
:107E4000B09BFECF1D9AA8958150A9F7CC24DD24C4
:107E500088248394B5E0AB2EA1E19A2EF3E0BF2EE7
:107E6000A2D0813461F49FD0082FAFD0023811F036
:107E7000013811F484E001C083E08DD089C08234E0
:107E800011F484E103C0853419F485E0A6D080C0E4
:107E9000853579F488D0E82EFF2485D0082F10E0AE
:107EA000102F00270E291F29000F111F8ED06801E7
:107EB0006FC0863521F484E090D080E0DECF843638
:107EC00009F040C070D06FD0082F6DD080E0C81688
:107ED00080E7D80618F4F601B7BEE895C0E0D1E017
:107EE00062D089930C17E1F7F0E0CF16F0E7DF06D8
:107EF00018F0F601B7BEE89568D007B600FCFDCFD4
:107F0000A601A0E0B1E02C9130E011968C91119780
:107F100090E0982F8827822B932B1296FA010C0160
:107F200087BEE89511244E5F5F4FF1E0A038BF0790
:107F300051F7F601A7BEE89507B600FCFDCF97BE46
:107F4000E89526C08437B1F42ED02DD0F82E2BD052
:107F50003CD0F601EF2C8F010F5F1F4F84911BD097
:107F6000EA94F801C1F70894C11CD11CFA94CF0C13
:107F7000D11C0EC0853739F428D08EE10CD085E9AC
:107F80000AD08FE07ACF813511F488E018D01DD067
:107F900080E101D065CF982F8091C00085FFFCCF94
:107FA0009093C60008958091C00087FFFCCF809118
:107FB000C00084FD01C0A8958091C6000895E0E648
:107FC000F0E098E1908380830895EDDF803219F02E
:107FD00088E0F5DFFFCF84E1DECF1F93182FE3DFCA
:107FE0001150E9F7F2DF1F91089580E0E8DFEE27F6
:047FF000FF270994CA
:027FFE00040479
:0400000300007E007B
:00000001FF