:100000000C945E000C9486000C9486000C94860080
:100010000C9486000C9486000C9486000C94860048
:100020000C9486000C9486000C9486000C94860038
:100030000C9486000C9486000C9486000C94860028
:100040000C94A5030C9486000C94EC060C941E07EB
:100050000C9486000C9486000C9486000C94860008
:100060000C9486000C948600000000080002010039
:100070000003040700000000000000000102040863
:100080001020408001020408102001020408102002
:10009000040404040404040402020202020203032E
:1000A0000303030300000000250028002B000000CC
:1000B0000000240027002A0084034E0711241FBEDD
:1000C000CFEFD8E0DEBFCDBF11E0A0E0B1E0E4EFBC
:1000D000FBE102C005900D92AA3CB107D9F722E0DE
:1000E000AAECB1E001C01D92A03CB207E1F710E01C
:1000F000CCEBD0E004C02297FE010E946D0BC83B00
:10010000D107C9F70E9492070C94F80D0C940000D7
:10011000BC018FE192E00C94DF07833759F08537FB
:1001200059F0843689F489E00E94B00460E070E000
:100130008AE008C060E070E08AE00E94B00460E0FD
:1001400070E089E00C94B004089560E070E083E70B
:100150000C948D00AF92BF92CF92DF92EF92FF92FC
:100160000F931F938EE00E949304BC01882777FDB4
:100170008095982F1F921F921F9224E62F93A12CF7
:10018000B12C6501E12C14E0F12E00E010E020E03C
:1001900030E0A9010E94A0090F900F900F900F90DE
:1001A000CB011F910F91FF90EF90DF90CF90BF9008
:1001B000AF9008950E94AA009093CD018093CC0146
:1001C0006BE071E08FE192E00E94ED076091CC015D
:1001D0007091CD014AE050E08FE192E00C949308D9
:1001E000CF93DF930E94AA00EC0166E171E08FE1FA
:1001F00092E00E94ED074AE050E0BE018FE192E0FC
:10020000DF91CF910C9493080F931F93CF93DF93BB
:10021000EC010E94AA008C010E94AA008C1B9D0B7D
:10022000181619062CF40E94AA008C1B9D0B06C000
:100230000E94AA009E01281B390BC9010297DCF11C
:1002400066E171E08FE192E00E94ED074AE050E044
:10025000B8018FE192E00E9493080E94AA008C01ED
:10026000CE01801B910B97FF03C091958195910959
:10027000803191052CF4069734F06CED70E005C0E8
:100280006FEF70E002C068EC70E00C171D0724F4FB
:1002900085E70E948D00C0CFC017D1074CF489E0DC
:1002A0000E94B00460E070E08AE00E94B004B4CF25
:1002B0000E94A500B1CF0E94A500DF91CF911F91B0
:1002C0000F910C94DA000F931F93CF93DF93CDB768
:1002D000DEB762970FB6F894DEBF0FBECDBF0E94A7
:1002E000AA008C010E94EF032091CC013091CD0136
:1002F0000217130709F441C02091CA013091CB01C4
:10030000621B730B77FF03C07195619571096B30A8
:1003100071059CF14AE0B801CE0107960E94A30A3C
:1003200063E271E0CE0101960E94550ABE01695F49
:100330007F4FCE0101960E94FB0ABC01CE010D96B3
:100340000E94820ACE0101960E94E709CE0107961B
:100350000E94E709BE01635F7F4FCE0101960E94B4
:10036000820ACE0101960E948800CE0101960E9469
:10037000E709CE010D960E94E7091093CD01009385
:10038000CC010E94EF037093CB016093CA01629687
:100390000FB6F894DEBF0FBECDBFDF91CF911F9196
:1003A0000F91089548EB5BE060E070E08EEC91E027
:1003B0000E94CD0220E835E240E050E06FE172E0BB
:1003C0008EEC91E00E94E10261E08EEC91E00E94EF
:1003D00097028823A1F066E271E08091100290916B
:1003E00011020E94ED074AE050E060E070E08EEC00
:1003F00091E00E9494028EEC91E00E94CC0241E0D8
:1004000060E08EEC91E00E94680360E08EE00E9464
:10041000380561E08AE00E94380561E089E00E94C9
:10042000380526E040E855E260E070E08FE192E0B8
:100430000E948A060C94DA00CF92DF92EF92FF922C
:10044000CF93DF938FE192E00E94A705181619065B
:100450009CF58FE192E00E94030641E060E070E0CD
:100460008FE192E00E9430096B017C01EB01209743
:10047000D9F00E94AA00C816D906B1F068E371E06D
:100480008FE192E00E94ED074AE050E0B6018FE173
:1004900092E00E949308C601DF91CF91FF90EF9008
:1004A000DF90CF900C940401DF91CF91FF90EF90FB
:1004B000DF90CF900C94F000DF91CF91FF90EF9000
:1004C000DF90CF9008950E941C020E9463016AE0B1
:1004D00070E080E090E00C941E048F929F92AF92A7
:1004E000BF92CF92DF92EF92FF926A017B010E944E
:1004F000EF034B015C01C60ED71EE81EF91E0E94D9
:10050000EF03681579058A059B0528F0C616D706FE
:10051000E806F906A0F7FF90EF90DF90CF90BF902C
:10052000AF909F908F90089521E00C946D02CF9230
:10053000DF92EF92FF92CF93DF93EC0161111EC027
:100540000E94EF03CA80DB80EC80FD806C197D097E
:100550008E099F09643671058105910578F424E6BA
:10056000C22ED12CE12CF12CC61AD70AE80AF90ABE
:1005700021E0B701A601CE010E946D020E94EF03A7
:100580006A837B838C839D8381E0DF91CF91FF9091
:10059000EF90DF90CF9008950895FC01EC5BFF4F42
:1005A0001082118212821382FC0112821382148241
:1005B0001582411551056105710511F00C949402E5
:1005C0000895FB01BA01A9018E5B9F4FDC01ED93F9
:1005D000FC9326E0CF010C948A068E5B9F4FDC01D2
:1005E0008D919C91DC01ED91FC910680F781E02DCD
:1005F000099508958E5B9F4FDC018D919C91DC01E4
:10060000ED91FC910480F581E02D09950895FF920C
:100610000F931F93CF93DF93EC01F62E0E94EF030D
:100620006A837B838C839D838E010E5B1F4F64E501
:1006300071E0F801808191810E94ED074AE050E06D
:100640006F2DF801808191810E94B8086BE571E0FF
:10065000F801808191810E94ED0742E350E060E063
:1006600070E0CE01DF91CF911F910F91FF900C941C
:1006700094021F93CF93DF93EC01162F8E8988236A
:1006800011F1CE010E94FA02811102C085E61CC060
:10069000CE010E94FA028823C9F3CE010E94ED0226
:1006A000883689F048F4883569F0833689F7612FF8
:1006B000CE010E94070307C0813729F0863741F732
:1006C00086E702C01E8A83E6DF91CF911F910895CD
:1006D0001F93CF93DF93EC01142F611105C01E8B84
:1006E000DF91CF911F91089581E08E8B60E0CE0164
:1006F0000E943903833699F341E050E060E070E0F6
:10070000CE010E949402F2CF1092D4011092D50132
:100710001092D6011092D7011092D8011092D901EF
:100720001092DA011092DB011092DC011092DD01CF
:100730001092DE011092DF011092E0011092E101AF
:100740001092E2011092E30108951F920F920FB6EA
:100750000F9211242F933F938F939F93AF93BF9347
:100760008091170290911802A0911902B0911A027B
:100770003091160223E0230F2D3720F40196A11D9E
:10078000B11D05C026E8230F0296A11DB11D2093BF
:1007900016028093170290931802A0931902B09347
:1007A0001A0280911B0290911C02A0911D02B0912F
:1007B0001E020196A11DB11D80931B0290931C0285
:1007C000A0931D02B0931E02BF91AF919F918F9194
:1007D0003F912F910F900FBE0F901F9018952FB73C
:1007E000F89460911702709118028091190290910B
:1007F0001A022FBF08953FB7F89480911B02909181
:100800001C02A0911D02B0911E0226B5A89B05C036
:100810002F3F19F00196A11DB11D3FBF6627782F0C
:10082000892F9A2F620F711D811D911D42E0660F65
:10083000771F881F991F4A95D1F708958F929F922D
:10084000AF92BF92CF92DF92EF92FF926B017C0149
:100850000E94FB034B015C01C114D104E104F104CB
:10086000F1F00E940E0B0E94FB03681979098A09B6
:100870009B09683E73408105910570F321E0C21A1F
:10088000D108E108F10888EE880E83E0981EA11CCB
:10089000B11CC114D104E104F10429F7DDCFFF90AC
:1008A000EF90DF90CF90BF90AF909F908F90089582
:1008B000789484B5826084BD84B5816084BD85B53B
:1008C000826085BD85B5816085BDEEE6F0E0808102
:1008D00081608083E1E8F0E0108280818260808323
:1008E000808181608083E0E8F0E0808181608083A6
:1008F000E1EBF0E0808184608083E0EBF0E08081D8
:1009000081608083EAE7F0E0808184608083808179
:100910008260808380818160808380818068808321
:100920001092C10008958E3008F08E50877020918B
:100930000A0190E4299F90011124822B80937C006E
:1009400080917A00806480937A0080917A0086FD9D
:10095000FCCF809178002091790090E0922B08954F
:100960001F93CF93DF93182FEB0161E00E943805AE
:10097000209711F460E004C0CF3FD10539F461E065
:10098000812FDF91CF911F910C947105E12FF0E041
:10099000E859FF4FE491E330F9F048F4E130B9F061
:1009A000E230A1F584B5806284BDC8BD34C0E730B3
:1009B000E9F0E83019F1E43049F580918000806277
:1009C00080938000D0938B00C0938A0024C084B5AC
:1009D000806884BDC7BD1FC08091800080688093FF
:1009E0008000D0938900C093880015C08091B0002A
:1009F00080688093B000C093B3000DC08091B000B8
:100A000080628093B000C093B40005C0C038D105A7
:100A10000CF0B5CFAFCFDF91CF911F910895833008
:100A200081F028F4813099F08230A1F00895873068
:100A3000A9F08830B9F08430D1F4809180008F7DA6
:100A400003C0809180008F7780938000089584B5E3
:100A50008F7702C084B58F7D84BD08958091B000EA
:100A60008F7703C08091B0008F7D8093B000089590
:100A7000CF93DF9390E0FC01E458FF4F2491FC01F9
:100A8000E057FF4F8491882349F190E0880F991F28
:100A9000FC01E255FF4FA591B4918C559F4FFC018D
:100AA000C591D4919FB7611108C0F8948C9120959D
:100AB00082238C93888182230AC0623051F4F89497
:100AC0008C91322F309583238C938881822B88835D
:100AD00004C0F8948C91822B8C939FBFDF91CF91AF
:100AE00008950F931F93CF93DF931F92CDB7DEB777
:100AF000282F30E0F901E859FF4F8491F901E458BB
:100B0000FF4F1491F901E057FF4F04910023C9F002
:100B1000882321F069830E940F056981E02FF0E0AE
:100B2000EE0FFF1FEC55FF4FA591B4919FB7F894BE
:100B30008C91611103C01095812301C0812B8C938E
:100B40009FBF0F90DF91CF911F910F910895FC01EE
:100B5000818D228D90E0805C9F4F821B91098F7365
:100B600099270895FC01918D828D981731F0828D1F
:100B7000E80FF11D858D90E008958FEF9FEF0895A8
:100B8000FC01918D828D981761F0828DDF01A80F95
:100B9000B11D5D968C91928D9F5F9F73928F90E0B7
:100BA00008958FEF9FEF089584E497E0892B49F033
:100BB00080E090E0892B29F00E94440781110C9479
:100BC00000000895FC01848DDF01A80FB11DA35A18
:100BD000BF4F2C91848D90E001968F739927848F5D
:100BE000A689B7892C93A089B1898C9180648C9354
:100BF000938D848D981306C00288F389E02D80813F
:100C00008F7D80830895CF93DF93EC01888D8823B7
:100C1000C9F0EA89FB89808185FD05C0A889B98969
:100C20008C9186FD0FC00FB607FCF5CF808185FF44
:100C3000F2CFA889B9898C9185FFEDCFCE010E94B2
:100C4000E205E7CFDF91CF910895CF92DF92FF9237
:100C50000F931F93CF93DF931F92CDB7DEB76C0135
:100C600081E0D60158968C9358975B969C915B9740
:100C70005C968C915C97981307C05096ED91FC910F
:100C80005197808185FD2EC0F601038D10E00F5F26
:100C90001F4F0F731127F02EF601848DF81211C02B
:100CA0000FB607FCF9CFD6015096ED91FC91519704
:100CB000808185FFF1CFC60169830E94E2056981C9
:100CC000EBCF838DE80FF11DE35AFF4F6083D60110
:100CD0005B960C935B975296ED91FC9153978081B4
:100CE00080620CC0D6015696ED91FC9157976083B7
:100CF0005096ED91FC91519780818064808381E0D2
:100D000090E00F90DF91CF911F910F91FF90DF90B6
:100D1000CF900895BF92CF92DF92EF92FF92CF9340
:100D2000DF93EC016A017B01B22EE889F98982E048
:100D30008083411581EE580761057105A1F060E0DF
:100D400079E08DE390E0A70196010E941F0B2150EE
:100D50003109410951095695479537952795211530
:100D600080E1380798F0E889F989108260E874E832
:100D70008EE190E0A70196010E941F0B21503109DE
:100D8000410951095695479537952795EC85FD857D
:100D90003083EE85FF852083188EEC89FD89B08233
:100DA000EA89FB89808180618083EA89FB8980816F
:100DB00088608083EA89FB89808180688083EA89F2
:100DC000FB8980818F7D8083DF91CF91FF90EF90B1
:100DD000DF90CF90BF9008951F920F920FB60F92A1
:100DE00011242F938F939F93EF93FF93E0912F0202
:100DF000F09130028081E0913502F091360282FD5F
:100E000012C09081809138028F5F8F7320913902D8
:100E1000821751F0E0913802F0E0E15EFD4F958FCE
:100E20008093380201C08081FF91EF919F918F9153
:100E30002F910F900FBE0F901F9018951F920F9239
:100E40000FB60F9211242F933F934F935F936F939D
:100E50007F938F939F93AF93BF93EF93FF938FE114
:100E600092E00E94E205FF91EF91BF91AF919F91B7
:100E70008F917F916F915F914F913F912F910F9043
:100E80000FBE0F901F9018958FE192E00E94A7056A
:100E900021E0892B09F420E0822F0895109222028C
:100EA0001092210288EE93E0A0E0B0E0809323024C
:100EB00090932402A0932502B093260280EB91E048
:100EC0009093200280931F0285EC90E090932C0277
:100ED00080932B0284EC90E090932E0280932D025D
:100EE00080EC90E09093300280932F0281EC90E0B0
:100EF000909332028093310282EC90E0909334021E
:100F00008093330286EC90E0909336028093350212
:100F1000109238021092390210923A0210923B025B
:100F2000089508950E9458040E9491070E94D201DA
:100F3000C4EDD5E00E9463022097E1F30E94D4053E
:100F4000F9CFCF92DF92EF92FF920F931F93CF933F
:100F5000DF937C016A01EB0100E010E00C151D0538
:100F600071F06991D701ED91FC910190F081E02D34
:100F7000C7010995892B19F00F5F1F4FEFCFC801EB
:100F8000DF91CF911F910F91FF90EF90DF90CF9065
:100F900008956115710581F0DB010D900020E9F7DE
:100FA000AD0141505109461B570BDC01ED91FC91FD
:100FB0000280F381E02D099480E090E00895DC0147
:100FC000ED91FC91DB0114964D915C9115976D911B
:100FD0007C910280F381E02D09940C94C907DC0117
:100FE000ED91FC910190F081E02D099461E671E0B2
:100FF0000C94C9078F929F92AF92BF92DF92EF92AB
:10100000FF920F931F93CF93DF93CDB7DEB7A197D6
:101010000FB6F894DEBF0FBECDBF7C01F42FD52EE6
:10102000CB0119A2223008F42AE08E010F5D1F4F78
:10103000822E912CA12CB12C6F2F7D2DA501940116
:101040000E941F0BF22FD32ECA01015011096A30E2
:1010500014F4E0E301C0E7E3E60FD801EC93232B9F
:10106000242B252B49F7B801C7010E94C907A19677
:101070000FB6F894DEBF0FBECDBFDF91CF911F91A9
:101080000F91FF90EF90DF90BF90AF909F908F9067
:101090000895CF92DF92EF92FF920F931F93CF9319
:1010A000DF93EC016A017B012115310579F4E881B8
:1010B000F9810190F081E02D642FDF91CF911F9194
:1010C0000F91FF90EF90DF90CF9009942A30310577
:1010D000E9F477FF1AC06DE20E94EF078C01442704
:1010E0005527BA014C195D096E097F092AE0CE0126
:1010F0000E94FA07800F911FDF91CF911F910F91EE
:10110000FF90EF90DF90CF9008952AE0B701A601FD
:10111000CE01DF91CF911F910F91FF90EF90DF9063
:10112000CF900C94FA070F931F93CF93DF93EC01AA
:101130009A01AB01662757FD6095762F0E944908FA
:101140008C01CE010E94F607800F911FDF91CF9195
:101150001F910F9108952115310541F4DC01ED91A6
:10116000FC910190F081E02D642F09940C94FA0712
:101170009A01462F50E060E070E00C94AB080F93AA
:101180001F93CF93DF93EC010E94EF036887798769
:101190008A879B87E881F9810084F185E02DCE0163
:1011A000099597FF15C00E94EF03088519852A85C8
:1011B0003B85601B710B820B930B0C811D812E8173
:1011C0003F81601771078207930720F38FEF9FEF2E
:1011D000DF91CF911F910F910895FF920F931F936D
:1011E000CF93DF93EC018B01F42ECE010E94BF0858
:1011F0009C0197FD28C08D32910519F1C0970A977F
:1012000010F1FF2019F02E323105F9F001301105EF
:10121000F9F00230110569F42D30310551F034F444
:10122000295031092230310520F012C02032310519
:1012300079F4E881F9810680F781E02DCE010995E6
:10124000D4CF8DE203C0C90105C08EE290E002C098
:101250008FEF9FEFDF91CF911F910F91FF90089536
:10126000CF92DF92FF920F931F93CF93DF9300D023
:1012700000D0CDB7DEB76C01042F40E00E94ED082E
:10128000FC0197FD4BC020E030E0A901F12C1127B3
:1012900007FD1095E017F107E9F0ED32F105C1F017
:1012A000CF01C0970A97B0F4AAE0B0E00E94600BAB
:1012B0009B01AC01CF01AA2797FDA095BA2F280F5B
:1012C000391F4A1F5B1F205331094109510902C0D0
:1012D000FF24F394D601ED91FC910680F781E02D77
:1012E000C60129833A834B835C830995C6010E941A
:1012F000BF08FC01C09729813A814B815C810A9724
:1013000048F2E017F10731F2FF2061F066277727F6
:10131000CB01621B730B840B950B06C060E070E081
:10132000CB0102C0CA01B9010F900F900F900F902E
:10133000DF91CF911F910F91FF90DF90CF90089593
:101340004F925F926F927F92AF92BF92CF92DF9255
:10135000EF92FF920F931F93CF93DF93CDB7DEB73A
:1013600029013A01621B730B840B950B29893A8979
:101370004B895C892A193B094C095D09298B3A8BF9
:101380004B8B5C8B9B01AC0169897A898B899C8929
:101390000E940F0BE418F50806091709A801970128
:1013A0000E94410B2A0D3B1D4C1D5D1DCA01B90158
:1013B000DF91CF911F910F91FF90EF90DF90CF9031
:1013C000BF90AF907F906F905F904F900895FC0119
:1013D000808191810C94180CCF93DF93EC0188816C
:1013E0009981009711F00E94180C198218821D82B1
:1013F0001C821B821A82DF91CF9108950F931F9355
:10140000CF93DF93EC018B016F5F7F4F88819981D0
:101410000E94A70C009731F0998388831B830A836D
:1014200081E001C080E0DF91CF911F910F9108957D
:10143000CF93DF93EC0188819981892B29F08A81F0
:101440009B818617970760F4CE010E94FE098823CE
:1014500041F08C819D81892B19F4E881F9811082FA
:1014600081E0DF91CF910895EF92FF920F931F9348
:10147000CF93DF93EC017B018A01BA010E94180A25
:10148000811104C0CE010E94EC0907C01D830C83AA
:10149000B701888199810E947A0DCE01DF91CF91A9
:1014A0001F910F91FF90EF900895FC01118210821F
:1014B00013821282158214826115710559F0FB01A5
:1014C00001900020E9F7AF0141505109461B570B2D
:1014D0000C94340A0895CF93DF93EC01FB01861737
:1014E000970761F0608171816115710529F0448170
:1014F00055810E94340A02C00E94EC09CE01DF919E
:10150000CF910895FC0111821082138212821582FC
:1015100014820C946B0ACF93DF93EC016115710573
:1015200061F0FB0101900020E9F7AF014150510942
:10153000461B570B0E94340A02C00E94EC09CE01E0
:10154000DF91CF9108950F931F93CF93DF93CDB782
:10155000DEB762970FB6F894DEBF0FBECDBF8C0129
:10156000CB01F8011182108213821282158214823B
:1015700050E0BE016F5F7F4F0E94810DBE016F5F23
:101580007F4FC8010E948B0A62960FB6F894DEBFA7
:101590000FBECDBFDF91CF911F910F910895EF92B4
:1015A000FF920F931F93CF93DF93EC017B010C818C
:1015B0001D816115710511F480E016C041155105BA
:1015C00091F0040F151FB8010E94180A8823A1F397
:1015D000288139818C819D81B701820F931F0E94E0
:1015E0007A0D1D830C8381E0DF91CF911F910F91C4
:1015F000FF90EF900895CF93DF93EC01FB014481BE
:101600005581608171810E94CF0A811103C0CE0192
:101610000E94EC09CE01DF91CF9108950895DB017E
:101620008F939F930E94600BBF91AF91A29F800DFB
:10163000911DA39F900DB29F900D11240895A1E2DA
:101640001A2EAA1BBB1BFD010DC0AA1FBB1FEE1F3C
:10165000FF1FA217B307E407F50720F0A21BB30B87
:10166000E40BF50B661F771F881F991F1A9469F703
:1016700060957095809590959B01AC01BD01CF015F
:101680000895052E97FB1EF400940E94580B57FDF9
:1016900007D00E941F0B07FC03D04EF40C94580B8C
:1016A00050954095309521953F4F4F4F5F4F08958E
:1016B00090958095709561957F4F8F4F9F4F0895BE
:1016C0000E94710BA59F900DB49F900DA49F800D5B
:1016D000911D11240895EE0FFF1F0590F491E02D48
:1016E0000994A29FB001B39FC001A39F700D811DFB
:1016F0001124911DB29F700D811D1124911D08951B
:10170000CF93DF938230910510F482E090E0E09176
:10171000BE02F091BF0220E030E0A0E0B0E03097E0
:1017200039F14081518148175907B8F048175907D6
:1017300071F482819381109729F013969C938E9374
:1017400012972CC09093BF028093BE0227C0211530
:10175000310531F04217530718F0A901DB0101C030
:10176000EF019A01BD01DF010280F381E02DD7CFA7
:1017700021153105F9F0281B390B2430310580F48F
:101780008A819B816115710521F0FB01938382831E
:1017900004C09093BF028093BE02FE01329644C003
:1017A000FE01E20FF31F8193919322503109398397
:1017B00028833AC02091BC023091BD02232B41F412
:1017C00020910201309103013093BD022093BC02AD
:1017D00020910001309101012115310541F42DB70F
:1017E0003EB74091040150910501241B350BE09157
:1017F000BC02F091BD02E217F307A0F42E1B3F0BD1
:101800002817390778F0AC014E5F5F4F2417350772
:1018100048F04E0F5F1F5093BD024093BC0281936E
:10182000919302C0E0E0F0E0CF01DF91CF91089505
:10183000CF93DF93009709F487C0FC01329713829E
:101840001282C091BE02D091BF02209781F4208104
:101850003181280F391F8091BC029091BD028217FF
:10186000930779F5F093BD02E093BC026DC0DE01F1
:1018700020E030E0AE17BF0750F412964D915C9116
:1018800013979D014115510509F1DA01F3CFB38397
:10189000A28340815181840F951F8A179B0771F4A1
:1018A0008D919C911197840F951F0296918380834F
:1018B00012968D919C911397938382832115310504
:1018C00029F4F093BF02E093BE023EC0D901139603
:1018D000FC93EE9312974D915D91A40FB51FEA17FB
:1018E000FB0779F480819181840F951F0296D901BD
:1018F00011969C938E938281938113969C938E93E1
:101900001297E0E0F0E08A819B81009719F0FE01D8
:10191000EC01F9CFCE01029628813981820F931F05
:101920002091BC023091BD022817390769F4309725
:1019300029F41092BF021092BE0202C013821282DA
:10194000D093BD02C093BC02DF91CF910895A0E077
:10195000B0E0EDEAFCE00C94C50DEC01CB01209762
:1019600019F40E94800BB8C0FE01E60FF71F9E011C
:1019700022503109E217F30708F4ACC0D9010D91E8
:101980001C91119706171707B8F00530110508F4D8
:101990009FC0A801445051094617570708F498C042
:1019A00002501109061B170B019311936D937C9341
:1019B000CF010E94180C8CC05B01A01AB10A4E0125
:1019C000800E911EA091BE02B091BF02612C712CBD
:1019D00060E070E0109709F449C0A815B905C9F591
:1019E000ED90FC901197670142E0C40ED11CCA141F
:1019F000DB0478F147018A189B08640142E0C40EB9
:101A0000D11C1296BC9012971396AC91B5E0CB16F0
:101A1000D10440F0B282A38391828082D9018D9358
:101A20009C9309C00E5F1F4F0E0D1F1DF9011183FE
:101A30000083EB2DFA2F6115710531F0DB01139650
:101A4000FC93EE93129744C0F093BF02E093BE0262
:101A50003FC06D917C9111976616770608F43B01A3
:101A6000BD0112960D90BC91A02DB4CF6091BC0227
:101A70007091BD0268157905E9F468167906D0F40D
:101A800040910001509101014115510541F44DB7BC
:101A90005EB76091040170910501461B570BE41776
:101AA000F507C0F4F093BD02E093BC02F901918305
:101AB00080830EC00E94800B7C01009759F0A80122
:101AC000BE010E94710DCE010E94180CC70104C016
:101AD000CE0102C080E090E0CDB7DEB7EEE00C941E
:101AE000E10DFB01DC0102C001900D92415050401C
:101AF000D8F70895FB01DC0101900D920020E1F779
:101B000008954532510520F4423010F00C948C0DAC
:101B1000FB011082CB010895BB274A3031F4992391
:101B200022F4BDE2909581959F4F0C94980DBB27B0
:101B3000FB015527AA27880F991FAA1FA41710F089
:101B4000A41B83955051B9F7A05DAA3308F0A95D95
:101B5000A193009779F7B111B1931192CB010C9435
:101B6000B10DDC01FC01672F71917723E1F732970A
:101B700004C07C916D9370836291AE17BF07C8F368
:101B800008952F923F924F925F926F927F928F9221
:101B90009F92AF92BF92CF92DF92EF92FF920F93FC
:101BA0001F93CF93DF93CDB7DEB7CA1BDB0B0FB606
:101BB000F894DEBF0FBECDBF09942A8839884888C3
:101BC0005F846E847D848C849B84AA84B984C88459
:101BD000DF80EE80FD800C811B81AA81B981CE0F50
:101BE000D11D0FB6F894DEBF0FBECDBFED01089535
:041BF000F894FFCF97
:101BF4000000C002800001000000015361766564AA
:101C040020706F73200043757272656E7420706F5C
:101C1400732000533100564D4450565F317C315F80
:101C2400564D4450560D0A00476F696E6720746F15
:101C34002000564D4450455F003A323A005F564DFD
:101C440044504500564D4450435F005F564D445048
:101C5400430D0A004572726F723A20417474656DC7
:101C6400707420746F2073657420612072656164E0
:101C74002D6F6E6C79207661726961626C65206F7C
:101C84007220646174612074797065206E6F7420B1
:101C9400737570706F727465640D0A000000000043
:101CA4002506A107A705C005B20503066E616E00EF
:0A1CB400696E66006F7666002E0070
:107E0000112484B714BE81FFF0D085E080938100F7
:107E100082E08093C00088E18093C10086E0809377
:107E2000C20080E18093C4008EE0C9D0259A86E02C
:107E300020E33CEF91E0309385002093840096BBD3
:107E4000B09BFECF1D9AA8958150A9F7CC24DD24C4
:107E500088248394B5E0AB2EA1E19A2EF3E0BF2EE7
:107E6000A2D0813461F49FD0082FAFD0023811F036
:107E7000013811F484E001C083E08DD089C08234E0
:107E800011F484E103C0853419F485E0A6D080C0E4
:107E9000853579F488D0E82EFF2485D0082F10E0AE
:107EA000102F00270E291F29000F111F8ED06801E7
:107EB0006FC0863521F484E090D080E0DECF843638
:107EC00009F040C070D06FD0082F6DD080E0C81688
:107ED00080E7D80618F4F601B7BEE895C0E0D1E017
:107EE00062D089930C17E1F7F0E0CF16F0E7DF06D8
:107EF00018F0F601B7BEE89568D007B600FCFDCFD4
:107F0000A601A0E0B1E02C9130E011968C91119780
:107F100090E0982F8827822B932B1296FA010C0160
:107F200087BEE89511244E5F5F4FF1E0A038BF0790
:107F300051F7F601A7BEE89507B600FCFDCF97BE46
:107F4000E89526C08437B1F42ED02DD0F82E2BD052
:107F50003CD0F601EF2C8F010F5F1F4F84911BD097
:107F6000EA94F801C1F70894C11CD11CFA94CF0C13
:107F7000D11C0EC0853739F428D08EE10CD085E9AC
:107F80000AD08FE07ACF813511F488E018D01DD067
:107F900080E101D065CF982F8091C00085FFFCCF94
:107FA0009093C60008958091C00087FFFCCF809118
:107FB000C00084FD01C0A8958091C6000895E0E648
:107FC000F0E098E1908380830895EDDF803219F02E
:107FD00088E0F5DFFFCF84E1DECF1F93182FE3DFCA
:107FE0001150E9F7F2DF1F91089580E0E8DFEE27F6
:047FF000FF270994CA
:027FFE00040479
:0400000300007E007B
:00000001FF