:100000000C945E000C9486000C9486000C94860080
:100010000C9486000C9486000C9486000C94860048
:100020000C9486000C9486000C9486000C94860038
:100030000C9486000C9486000C9486000C94860028
:100040000C9490030C9486000C94D7060C9409072A
:100050000C9486000C9486000C9486000C94860008
:100060000C9486000C948600000000080002010039
:100070000003040700000000000000000102040863
:100080001020408001020408102001020408102002
:10009000040404040404040402020202020203032E
:1000A0000303030300000000250028002B000000CC
:1000B0000000240027002A006F03390711241FBE07
:1000C000CFEFD8E0DEBFCDBF11E0A0E0B1E0EAECB9
:1000D000FBE102C005900D92A03CB107D9F722E0E8
:1000E000A0ECB1E001C01D92A83BB207E1F710E01F
:1000F000CCEBD0E004C02297FE010E94580BC83B15
:10010000D107C9F70E947D070C94E30D0C94000001
:10011000BC0187E192E00C94CA07833759F0853718
:1001200059F0843689F489E00E949B0460E070E015
:100130008AE008C060E070E08AE00E949B0460E012
:1001400070E089E00C949B04089560E070E083E720
:100150000C948D00AF92BF92CF92DF92EF92FF92FC
:100160000F931F938EE00E947E04BC01882777FDC9
:100170008095982F1F921F921F9224E62F93A12CF7
:10018000B12C6501E12C14E0F12E00E010E020E03C
:1001900030E0A9010E948B090F900F900F900F90F3
:1001A000CB011F910F91FF90EF90DF90CF90BF9008
:1001B000AF9008950E94AA009093C5018093C40156
:1001C00008950F931F93CF93DF938C010E94AA0091
:1001D000EC019093C1018093C0010E94AA00801B92
:1001E000910B181619062CF40E94AA00801B910B83
:1001F00006C00E94AA009801281B390BC90102976A
:10020000E4F1D093C101C093C0016BE071E087E1DC
:1002100092E00E94D8074AE050E0BE0187E192E0F8
:100220000E947E080E94AA00EC018091C00190917A
:10023000C1019E01281B390BC9014D96CB9768F669
:10024000C017D10734F46FEF70E085E70E948D008E
:10025000C4CF0C171D0774F4C336D10559F06FEFE6
:1002600070E089E00E949B0460E070E08AE00E94F8
:100270009B04B3CF0E94A500B0CF0E94A500DF91E0
:10028000CF911F910F910C94DA000F931F93CF938E
:10029000DF93CDB7DEB762970FB6F894DEBF0FBE1F
:1002A000CDBF0E94AA008C010E94DA032091C401F4
:1002B0003091C501A801421B530B9A01465F5F4F65
:1002C0004531510508F044C0232B09F441C0209169
:1002D000C2013091C301621B730B77FF03C071959C
:1002E000619571096B3071059CF14AE0B801CE014E
:1002F00007960E948E0A68E171E0CE0101960E9485
:10030000400ABE01695F7F4FCE0101960E94E60A56
:10031000BC01CE010D960E946D0ACE0101960E948D
:10032000D209CE0107960E94D209BE01635F7F4FBA
:10033000CE0101960E946D0ACE0101960E948800AE
:10034000CE0101960E94D209CE010D960E94D209DB
:100350001093C5010093C4010E94DA037093C30196
:100360006093C20162960FB6F894DEBF0FBECDBF98
:10037000DF91CF911F910F91089548EB5BE060E012
:1003800070E086EC91E00E94B80220E835E240E09F
:1003900050E067E172E086EC91E00E94CC0261E0FF
:1003A00086EC91E00E9482028823A1F06BE171E06B
:1003B00080910802909109020E94D8074AE050E01B
:1003C00060E070E086EC91E00E947F0286EC91E0B4
:1003D0000E94B70241E060E086EC91E00E94530386
:1003E00060E08EE00E94230561E08AE00E94230520
:1003F00061E089E00E94230526E040E855E260E0E4
:1004000070E087E192E00E9475060C94DA00CF92CA
:10041000DF92EF92FF92CF93DF9387E192E00E9409
:100420009205181619069CF541E060E070E087E13E
:1004300092E00E941B096B017C01EB012097F9F00F
:100440000E94AA00C816D906D1F084E6C816D104C5
:10045000B0F46DE271E087E192E00E94D8074AE0D3
:1004600050E0B60187E192E00E947E08C601DF916C
:10047000CF91FF90EF90DF90CF900C94E100DF914F
:10048000CF91FF90EF90DF90CF900C94AA00DF9176
:10049000CF91FF90EF90DF90CF9008950E940702D8
:1004A0000E9445016AE070E080E090E00C9409044D
:1004B0008F929F92AF92BF92CF92DF92EF92FF9274
:1004C0006A017B010E94DA034B015C01C60ED71E54
:1004D000E81EF91E0E94DA03681579058A059B0556
:1004E00028F0C616D706E806F906A0F7FF90EF90A9
:1004F000DF90CF90BF90AF909F908F90089521E0B4
:100500000C945802CF92DF92EF92FF92CF93DF9339
:10051000EC0161111EC00E94DA03CA80DB80EC800E
:10052000FD806C197D098E099F096436710581056E
:10053000910578F424E6C22ED12CE12CF12CC61AB8
:10054000D70AE80AF90A21E0B701A601CE010E9404
:1005500058020E94DA036A837B838C839D8381E047
:10056000DF91CF91FF90EF90DF90CF9008950895A5
:10057000FC01EC5BFF4F1082118212821382FC019E
:10058000128213821482158241155105610571058D
:1005900011F00C947F020895FB01BA01A9018E5B52
:1005A0009F4FDC01ED93FC9326E0CF010C94750680
:1005B0008E5B9F4FDC018D919C91DC01ED91FC9154
:1005C0000680F781E02D099508958E5B9F4FDC0131
:1005D0008D919C91DC01ED91FC910480F581E02DE1
:1005E00009950895FF920F931F93CF93DF93EC012A
:1005F000F62E0E94DA036A837B838C839D838E01AF
:100600000E5B1F4F69E471E0F801808191810E94C7
:10061000D8074AE050E06F2DF801808191810E9457
:10062000A30860E571E0F801808191810E94D807FC
:1006300042E350E060E070E0CE01DF91CF911F9186
:100640000F91FF900C947F021F93CF93DF93EC01E7
:10065000162F8E89882311F1CE010E94E5028111A7
:1006600002C085E61CC0CE010E94E5028823C9F3C2
:10067000CE010E94D802883689F048F4883569F0A6
:10068000833689F7612FCE010E94F20207C08137BD
:1006900029F0863741F786E702C01E8A83E6DF919C
:1006A000CF911F9108951F93CF93DF93EC01142FE7
:1006B000611105C01E8BDF91CF911F91089581E0DC
:1006C0008E8B60E0CE010E942403833699F341E0D3
:1006D00050E060E070E0CE010E947F02F2CF109205
:1006E000CC011092CD011092CE011092CF01109248
:1006F000D0011092D1011092D2011092D301109228
:10070000D4011092D5011092D6011092D701109207
:10071000D8011092D9011092DA011092DB010895EC
:100720001F920F920FB60F9211242F933F938F9326
:100730009F93AF93BF9380910F0290911002A0916D
:100740001102B091120230910E0223E0230F2D37D7
:1007500020F40196A11DB11D05C026E8230F0296C5
:10076000A11DB11D20930E0280930F0290931002E1
:10077000A0931102B093120280911302909114027F
:10078000A0911502B09116020196A11DB11D809392
:10079000130290931402A0931502B0931602BF9116
:1007A000AF919F918F913F912F910F900FBE0F901E
:1007B0001F9018952FB7F89460910F027091100256
:1007C00080911102909112022FBF08953FB7F894C3
:1007D0008091130290911402A0911502B09116021B
:1007E00026B5A89B05C02F3F19F00196A11DB11D8C
:1007F0003FBF6627782F892F9A2F620F711D811DA9
:10080000911D42E0660F771F881F991F4A95D1F707
:1008100008958F929F92AF92BF92CF92DF92EF9204
:10082000FF926B017C010E94E6034B015C01C11445
:10083000D104E104F104F1F00E94F90A0E94E603F8
:10084000681979098A099B09683E734081059105F9
:1008500070F321E0C21AD108E108F10888EE880E91
:1008600083E0981EA11CB11CC114D104E104F10461
:1008700029F7DDCFFF90EF90DF90CF90BF90AF9042
:100880009F908F900895789484B5826084BD84B5DC
:10089000816084BD85B5826085BD85B5816085BD7B
:1008A000EEE6F0E0808181608083E1E8F0E0108294
:1008B000808182608083808181608083E0E8F0E0D5
:1008C000808181608083E1EBF0E0808184608083BF
:1008D000E0EBF0E0808181608083EAE7F0E08081F6
:1008E0008460808380818260808380818160808356
:1008F0008081806880831092C10008958E3008F056
:100900008E50877020910A0190E4299F9001112454
:10091000822B80937C0080917A00806480937A009F
:1009200080917A0086FDFCCF80917800209179003B
:1009300090E0922B08951F93CF93DF93182FEB0134
:1009400061E00E942305209711F460E004C0CF3FCE
:10095000D10539F461E0812FDF91CF911F910C9483
:100960005C05E12FF0E0E859FF4FE491E330F9F046
:1009700048F4E130B9F0E230A1F584B5806284BD7D
:10098000C8BD34C0E730E9F0E83019F1E43049F58A
:1009900080918000806280938000D0938B00C09310
:1009A0008A0024C084B5806884BDC7BD1FC0809103
:1009B0008000806880938000D0938900C093880075
:1009C00015C08091B00080688093B000C093B300E0
:1009D0000DC08091B00080628093B000C093B400DD
:1009E00005C0C038D1050CF0B5CFAFCFDF91CF91A6
:1009F0001F910895833081F028F4813099F082307E
:100A0000A1F008958730A9F08830B9F08430D1F48E
:100A1000809180008F7D03C0809180008F778093CC
:100A20008000089584B58F7702C084B58F7D84BD22
:100A300008958091B0008F7703C08091B0008F7DC2
:100A40008093B0000895CF93DF9390E0FC01E458C9
:100A5000FF4F2491FC01E057FF4F8491882349F117
:100A600090E0880F991FFC01E255FF4FA591B491CA
:100A70008C559F4FFC01C591D4919FB7611108C05F
:100A8000F8948C91209582238C93888182230AC0CC
:100A9000623051F4F8948C91322F309583238C93EB
:100AA0008881822B888304C0F8948C91822B8C934C
:100AB0009FBFDF91CF9108950F931F93CF93DF9343
:100AC0001F92CDB7DEB7282F30E0F901E859FF4F6C
:100AD0008491F901E458FF4F1491F901E057FF4F59
:100AE00004910023C9F0882321F069830E94FA044D
:100AF0006981E02FF0E0EE0FFF1FEC55FF4FA5914D
:100B0000B4919FB7F8948C91611103C01095812323
:100B100001C0812B8C939FBF0F90DF91CF911F91CC
:100B20000F910895FC01818D228D90E0805C9F4F94
:100B3000821B91098F7399270895FC01918D828DF5
:100B4000981731F0828DE80FF11D858D90E00895A2
:100B50008FEF9FEF0895FC01918D828D981761F0C2
:100B6000828DDF01A80FB11D5D968C91928D9F5FE4
:100B70009F73928F90E008958FEF9FEF08958FE21B
:100B800097E0892B49F080E090E0892B29F00E94C2
:100B90002F0781110C9400000895FC01848DDF0162
:100BA000A80FB11DA35ABF4F2C91848D90E00196E0
:100BB0008F739927848FA689B7892C93A089B189CF
:100BC0008C9180648C93938D848D981306C00288D9
:100BD000F389E02D80818F7D80830895CF93DF930B
:100BE000EC01888D8823C9F0EA89FB89808185FD25
:100BF00005C0A889B9898C9186FD0FC00FB607FC86
:100C0000F5CF808185FFF2CFA889B9898C9185FFC6
:100C1000EDCFCE010E94CD05E7CFDF91CF910895B2
:100C2000CF92DF92FF920F931F93CF93DF931F9288
:100C3000CDB7DEB76C0181E0D60158968C935897FA
:100C40005B969C915B975C968C915C97981307C020
:100C50005096ED91FC915197808185FD2EC0F60153
:100C6000038D10E00F5F1F4F0F731127F02EF60159
:100C7000848DF81211C00FB607FCF9CFD60150963B
:100C8000ED91FC915197808185FFF1CFC601698379
:100C90000E94CD056981EBCF838DE80FF11DE35AEA
:100CA000FF4F6083D6015B960C935B975296ED9154
:100CB000FC915397808180620CC0D6015696ED91CD
:100CC000FC91579760835096ED91FC9151978081EC
:100CD0008064808381E090E00F90DF91CF911F913D
:100CE0000F91FF90DF90CF900895BF92CF92DF9247
:100CF000EF92FF92CF93DF93EC016A017B01B22E5A
:100D0000E889F98982E08083411581EE5807610501
:100D10007105A1F060E079E08DE390E0A701960114
:100D20000E940A0B215031094109510956954795F6
:100D300037952795211580E1380798F0E889F989DA
:100D4000108260E874E88EE190E0A70196010E94AD
:100D50000A0B21503109410951095695479537959C
:100D60002795EC85FD853083EE85FF852083188EE1
:100D7000EC89FD89B082EA89FB898081806180836A
:100D8000EA89FB89808188608083EA89FB89808188
:100D900080688083EA89FB8980818F7D8083DF91F1
:100DA000CF91FF90EF90DF90CF90BF9008951F926A
:100DB0000F920FB60F9211242F938F939F93EF935F
:100DC000FF93E0912702F09128028081E0912D02AB
:100DD000F0912E0282FD12C09081809130028F5FCF
:100DE0008F7320913102821751F0E0913002F0E0D0
:100DF000E95EFD4F958F8093300201C08081FF91A5
:100E0000EF919F918F912F910F900FBE0F901F9098
:100E100018951F920F920FB60F9211242F933F93A4
:100E20004F935F936F937F938F939F93AF93BF93F2
:100E3000EF93FF9387E192E00E94CD05FF91EF9140
:100E4000BF91AF919F918F917F916F915F914F91E2
:100E50003F912F910F900FBE0F901F90189587E133
:100E600092E00E94920521E0892B09F420E0822F74
:100E7000089510921A021092190288EE93E0A0E0F1
:100E8000B0E080931B0290931C02A0931D02B093CC
:100E90001E0285EA91E0909318028093170285EC78
:100EA00090E0909324028093230284EC90E090934E
:100EB00026028093250280EC90E090932802809394
:100EC000270281EC90E090932A028093290282EC21
:100ED00090E090932C0280932B0286EC90E090930C
:100EE0002E0280932D021092300210923102109245
:100EF000320210923302089508950E9443040E9422
:100F00007C070E94BD01CFEBD5E00E944E022097E6
:100F1000E1F30E94BF05F9CFCF92DF92EF92FF92EB
:100F20000F931F93CF93DF937C016A01EB0100E0E5
:100F300010E00C151D0571F06991D701ED91FC9140
:100F40000190F081E02DC7010995892B19F00F5F01
:100F50001F4FEFCFC801DF91CF911F910F91FF90ED
:100F6000EF90DF90CF9008956115710581F0DB015E
:100F70000D900020E9F7AD0141505109461B570B78
:100F8000DC01ED91FC910280F381E02D099480E079
:100F900090E00895DC01ED91FC91DB0114964D91F8
:100FA0005C9115976D917C910280F381E02D0994FD
:100FB0000C94B407DC01ED91FC910190F081E02DDF
:100FC000099466E571E00C94B4078F929F92AF92FA
:100FD000BF92DF92EF92FF920F931F93CF93DF9315
:100FE000CDB7DEB7A1970FB6F894DEBF0FBECDBF69
:100FF0007C01F42FD52ECB0119A2223008F42AE06F
:101000008E010F5D1F4F822E912CA12CB12C6F2FC2
:101010007D2DA50194010E940A0BF22FD32ECA0147
:10102000015011096A3014F4E0E301C0E7E3E60F70
:10103000D801EC93232B242B252B49F7B801C701AA
:101040000E94B407A1960FB6F894DEBF0FBECDBFC5
:10105000DF91CF911F910F91FF90EF90DF90BF90A4
:10106000AF909F908F900895CF92DF92EF92FF9272
:101070000F931F93CF93DF93EC016A017B0121153E
:10108000310579F4E881F9810190F081E02D642F38
:10109000DF91CF911F910F91FF90EF90DF90CF9054
:1010A00009942A303105E9F477FF1AC06DE20E94F5
:1010B000DA078C0144275527BA014C195D096E09DE
:1010C0007F092AE0CE010E94E507800F911FDF9182
:1010D000CF911F910F91FF90EF90DF90CF900895E7
:1010E0002AE0B701A601CE01DF91CF911F910F91A8
:1010F000FF90EF90DF90CF900C94E5070F931F9334
:10110000CF93DF93EC019A01AB01662757FD609501
:10111000762F0E9434088C01CE010E94E107800FD7
:10112000911FDF91CF911F910F91089521153105E6
:1011300041F4DC01ED91FC910190F081E02D642FF0
:1011400009940C94E5079A01462F50E060E070E0A6
:101150000C9496080F931F93CF93DF93EC010E949A
:10116000DA03688779878A879B87E881F981008419
:10117000F185E02DCE01099597FF15C00E94DA0395
:10118000088519852A853B85601B710B820B930BA3
:101190000C811D812E813F816017710782079307A3
:1011A00020F38FEF9FEFDF91CF911F910F91089563
:1011B000FF920F931F93CF93DF93EC018B01F42EDB
:1011C000CE010E94AA089C0197FD28C08D3291058E
:1011D00019F1C0970A9710F1FF2019F02E3231054E
:1011E000F9F001301105F9F00230110569F42D30E4
:1011F000310551F034F4295031092230310520F005
:1012000012C02032310579F4E881F9810680F78136
:10121000E02DCE010995D4CF8DE203C0C90105C0F0
:101220008EE290E002C08FEF9FEFDF91CF911F9190
:101230000F91FF900895CF92DF92FF920F931F932B
:10124000CF93DF9300D000D0CDB7DEB76C01042F71
:1012500040E00E94D808FC0197FD4BC020E030E040
:10126000A901F12C112707FD1095E017F107E9F00E
:10127000ED32F105C1F0CF01C0970A97B0F4AAE0B2
:10128000B0E00E944B0B9B01AC01CF01AA2797FD58
:10129000A095BA2F280F391F4A1F5B1F2053310911
:1012A0004109510902C0FF24F394D601ED91FC914C
:1012B0000680F781E02DC60129833A834B835C8346
:1012C0000995C6010E94AA08FC01C09729813A81AC
:1012D0004B815C810A9748F2E017F10731F2FF2059
:1012E00061F066277727CB01621B730B840B950B8C
:1012F00006C060E070E0CB0102C0CA01B9010F90E6
:101300000F900F900F90DF91CF911F910F91FF9051
:10131000DF90CF9008954F925F926F927F92AF923D
:10132000BF92CF92DF92EF92FF920F931F93CF93D2
:10133000DF93CDB7DEB729013A01621B730B840B33
:10134000950B29893A894B895C892A193B094C09F3
:101350005D09298B3A8B4B8B5C8B9B01AC016989B6
:101360007A898B899C890E94FA0AE418F508060993
:101370001709A80197010E942C0B2A0D3B1D4C1D3B
:101380005D1DCA01B901DF91CF911F910F91FF90AF
:10139000EF90DF90CF90BF90AF907F906F905F9075
:1013A0004F900895FC01808191810C94030CCF93A0
:1013B000DF93EC0188819981009711F00E94030C62
:1013C000198218821D821C821B821A82DF91CF91A2
:1013D00008950F931F93CF93DF93EC018B016F5F01
:1013E0007F4F888199810E94920C009731F09983F8
:1013F00088831B830A8381E001C080E0DF91CF9165
:101400001F910F910895CF93DF93EC01888199810B
:10141000892B29F08A819B818617970760F4CE017A
:101420000E94E909882341F08C819D81892B19F460
:10143000E881F981108281E0DF91CF910895EF92E8
:10144000FF920F931F93CF93DF93EC017B018A01EF
:10145000BA010E94030A811104C0CE010E94D7097B
:1014600007C01D830C83B701888199810E94650D97
:10147000CE01DF91CF911F910F91FF90EF900895D2
:10148000FC0111821082138212821582148261156E
:10149000710559F0FB0101900020E9F7AF014150BF
:1014A0005109461B570B0C941F0A0895CF93DF93E5
:1014B000EC01FB018617970761F06081718161156E
:1014C000710529F0448155810E941F0A02C00E94C3
:1014D000D709CE01DF91CF910895FC0111821082CE
:1014E00013821282158214820C94560ACF93DF93D2
:1014F000EC016115710561F0FB0101900020E9F735
:10150000AF0141505109461B570B0E941F0A02C0F0
:101510000E94D709CE01DF91CF9108950F931F93B9
:10152000CF93DF93CDB7DEB762970FB6F894DEBFE7
:101530000FBECDBF8C01CB01F80111821082138246
:1015400012821582148250E0BE016F5F7F4F0E94AD
:101550006C0DBE016F5F7F4FC8010E94760A6296D4
:101560000FB6F894DEBF0FBECDBFDF91CF911F91B4
:101570000F910895EF92FF920F931F93CF93DF93F4
:10158000EC017B010C811D816115710511F480E076
:1015900016C04115510591F0040F151FB8010E94A6
:1015A000030A8823A1F3288139818C819D81B701A9
:1015B000820F931F0E94650D1D830C8381E0DF91D4
:1015C000CF911F910F91FF90EF900895CF93DF93EC
:1015D000EC01FB0144815581608171810E94BA0A4E
:1015E000811103C0CE010E94D709CE01DF91CF91B6
:1015F00008950895DB018F939F930E944B0BBF9139
:10160000AF91A29F800D911DA39F900DB29F900D51
:1016100011240895A1E21A2EAA1BBB1BFD010DC0C7
:10162000AA1FBB1FEE1FFF1FA217B307E407F50792
:1016300020F0A21BB30BE40BF50B661F771F881F6E
:10164000991F1A9469F760957095809590959B0104
:10165000AC01BD01CF010895052E97FB1EF4009447
:101660000E94430B57FD07D00E940A0B07FC03D0D2
:101670004EF40C94430B50954095309521953F4F77
:101680004F4F5F4F089590958095709561957F4F6E
:101690008F4F9F4F08950E945C0BA59F900DB49FA4
:1016A000900DA49F800D911D11240895EE0FFF1F32
:1016B0000590F491E02D0994A29FB001B39FC00161
:1016C000A39F700D811D1124911DB29F700D811D6E
:1016D0001124911D0895CF93DF938230910510F46A
:1016E00082E090E0E091B602F091B70220E030E0B5
:1016F000A0E0B0E0309739F1408151814817590797
:10170000B8F04817590771F482819381109729F036
:1017100013969C938E9312972CC09093B70280934C
:10172000B60227C02115310531F04217530718F0D2
:10173000A901DB0101C0EF019A01BD01DF010280B7
:10174000F381E02DD7CF21153105F9F0281B390B96
:101750002430310580F48A819B816115710521F067
:10176000FB019383828304C09093B7028093B602F7
:10177000FE01329644C0FE01E20FF31F8193919364
:1017800022503109398328833AC02091B402309124
:10179000B502232B41F420910201309103013093D3
:1017A000B5022093B402209100013091010121156E
:1017B000310541F42DB73EB7409104015091050128
:1017C000241B350BE091B402F091B502E217F30748
:1017D000A0F42E1B3F0B2817390778F0AC014E5FA1
:1017E0005F4F2417350748F04E0F5F1F5093B50227
:1017F0004093B4028193919302C0E0E0F0E0CF0106
:10180000DF91CF910895CF93DF93009709F487C0BC
:10181000FC01329713821282C091B602D091B702B6
:10182000209781F420813181280F391F8091B402E3
:101830009091B5028217930779F5F093B502E09382
:10184000B4026DC0DE0120E030E0AE17BF0750F4F7
:1018500012964D915C9113979D014115510509F127
:10186000DA01F3CFB383A28340815181840F951FA6
:101870008A179B0771F48D919C911197840F951F86
:1018800002969183808312968D919C9113979383F6
:1018900082832115310529F4F093B702E093B60253
:1018A0003EC0D9011396FC93EE9312974D915D9132
:1018B000A40FB51FEA17FB0779F480819181840F8B
:1018C000951F0296D90111969C938E9382819381E4
:1018D00013969C938E931297E0E0F0E08A819B81AF
:1018E000009719F0FE01EC01F9CFCE010296288194
:1018F0003981820F931F2091B4023091B5022817CD
:10190000390769F4309729F41092B7021092B602A1
:1019100002C013821282D093B502C093B402DF9149
:10192000CF910895A0E0B0E0E8E9FCE00C94B00DA0
:10193000EC01CB01209719F40E946B0BB8C0FE019B
:10194000E60FF71F9E0122503109E217F30708F452
:10195000ACC0D9010D911C91119706171707B8F06B
:101960000530110508F49FC0A801445051094617DD
:10197000570708F498C002501109061B170B019372
:1019800011936D937C93CF010E94030C8CC05B017B
:10199000A01AB10A4E01800E911EA091B602B0911C
:1019A000B702612C712C60E070E0109709F449C017
:1019B000A815B905C9F5ED90FC901197670142E0B3
:1019C000C40ED11CCA14DB0478F147018A189B08A5
:1019D000640142E0C40ED11C1296BC90129713967B
:1019E000AC91B5E0CB16D10440F0B282A3839182D2
:1019F0008082D9018D939C9309C00E5F1F4F0E0DFD
:101A00001F1DF90111830083EB2DFA2F611571055C
:101A100031F0DB011396FC93EE93129744C0F093E0
:101A2000B702E093B6023FC06D917C9111976616A4
:101A3000770608F43B01BD0112960D90BC91A02DD4
:101A4000B4CF6091B4027091B50268157905E9F4DC
:101A500068167906D0F440910001509101014115BA
:101A6000510541F44DB75EB76091040170910501D5
:101A7000461B570BE417F507C0F4F093B502E0934B
:101A8000B402F901918380830EC00E946B0B7C012C
:101A9000009759F0A801BE010E945C0DCE010E9482
:101AA000030CC70104C0CE0102C080E090E0CDB7B6
:101AB000DEB7EEE00C94CC0DFB01DC0102C001901E
:101AC0000D9241505040D8F70895FB01DC01019080
:101AD0000D920020E1F708954532510520F442307F
:101AE00010F00C94770DFB011082CB010895BB27F9
:101AF0004A3031F4992322F4BDE2909581959F4FAD
:101B00000C94830DBB27FB015527AA27880F991F2B
:101B1000AA1FA41710F0A41B83955051B9F7A05D1C
:101B2000AA3308F0A95DA193009779F7B111B19399
:101B30001192CB010C949C0DDC01FC01672F71917B
:101B40007723E1F7329704C07C916D9370836291A3
:101B5000AE17BF07C8F308952F923F924F925F923E
:101B60006F927F928F929F92AF92BF92CF92DF92AD
:101B7000EF92FF920F931F93CF93DF93CDB7DEB712
:101B8000CA1BDB0B0FB6F894DEBF0FBECDBF0994A6
:101B90002A88398848885F846E847D848C849B84FD
:101BA000AA84B984C884DF80EE80FD800C811B810B
:101BB000AA81B981CE0FD11D0FB6F894DEBF0FBE3A
:0A1BC000CDBFED010895F894FFCFAA
:101BCA000000B802800001000000014375727265CE
:101BDA006E7420706F732000533100564D44505676
:101BEA005F317C315F564D4450560D0A00476F698C
:101BFA006E6720746F2000564D4450455F003A329C
:101C0A003A005F564D44504500564D4450435F00DC
:101C1A005F564D4450430D0A004572726F723A2066
:101C2A00417474656D707420746F207365742061DB
:101C3A0020726561642D6F6E6C79207661726961BC
:101C4A00626C65206F7220646174612074797065BA
:101C5A00206E6F7420737570706F727465640D0AEC
:101C6A00000000000010068C079205AB059D05EEEA
:101C7A00056E616E00696E66006F7666002E000062
:107E0000112484B714BE81FFF0D085E080938100F7
:107E100082E08093C00088E18093C10086E0809377
:107E2000C20080E18093C4008EE0C9D0259A86E02C
:107E300020E33CEF91E0309385002093840096BBD3
:107E4000B09BFECF1D9AA8958150A9F7CC24DD24C4
:107E500088248394B5E0AB2EA1E19A2EF3E0BF2EE7
:107E6000A2D0813461F49FD0082FAFD0023811F036
:107E7000013811F484E001C083E08DD089C08234E0
:107E800011F484E103C0853419F485E0A6D080C0E4
:107E9000853579F488D0E82EFF2485D0082F10E0AE
:107EA000102F00270E291F29000F111F8ED06801E7
:107EB0006FC0863521F484E090D080E0DECF843638
:107EC00009F040C070D06FD0082F6DD080E0C81688
:107ED00080E7D80618F4F601B7BEE895C0E0D1E017
:107EE00062D089930C17E1F7F0E0CF16F0E7DF06D8
:107EF00018F0F601B7BEE89568D007B600FCFDCFD4
:107F0000A601A0E0B1E02C9130E011968C91119780
:107F100090E0982F8827822B932B1296FA010C0160
:107F200087BEE89511244E5F5F4FF1E0A038BF0790
:107F300051F7F601A7BEE89507B600FCFDCF97BE46
:107F4000E89526C08437B1F42ED02DD0F82E2BD052
:107F50003CD0F601EF2C8F010F5F1F4F84911BD097
:107F6000EA94F801C1F70894C11CD11CFA94CF0C13
:107F7000D11C0EC0853739F428D08EE10CD085E9AC
:107F80000AD08FE07ACF813511F488E018D01DD067
:107F900080E101D065CF982F8091C00085FFFCCF94
:107FA0009093C60008958091C00087FFFCCF809118
:107FB000C00084FD01C0A8958091C6000895E0E648
:107FC000F0E098E1908380830895EDDF803219F02E
:107FD00088E0F5DFFFCF84E1DECF1F93182FE3DFCA
:107FE0001150E9F7F2DF1F91089580E0E8DFEE27F6
:047FF000FF270994CA
:027FFE00040479
:0400000300007E007B
:00000001FF