:100000000C945D000C9485000C9485000C94850084
:100010000C9485000C9485000C9485000C9485004C
:100020000C9485000C9485000C9485000C9485003C
:100030000C9485000C9485000C9485000C9485002C
:100040000C948A020C9485000C94D1050C94030640
:100050000C9485000C9485000C9485000C9485000C
:100060000C9485000C94850000000008000201003B
:100070000003040700000000000000000102040863
:100080001020408001020408102001020408102002
:10009000040404040404040402020202020203032E
:1000A0000303030300000000250028002B000000CC
:1000B0000000240027002A00330611241FBECFEFC2
:1000C000D8E0DEBFCDBF11E0A0E0B1E0E8E6F9E1A5
:1000D00002C005900D92A235B107D9F722E0A2E542
:1000E000B1E001C01D92A230B207E1F710E0CAEB07
:1000F000D0E004C02297FE010E94E209C83BD1076C
:10010000C9F70E9477060C94B20C0C940000BC0155
:1001100081E691E00C94C406833759F0853759F095
:10012000843689F489E00E94950360E070E08AE0FB
:1001300008C060E070E08AE00E94950360E070E033
:1001400089E00C949503089560E070E083E70C94D7
:100150008C00AF92BF92CF92DF92EF92FF920F93FB
:100160001F938EE00E947803BC01882777FD80955D
:10017000982F1F921F921F9224E62F93A12CB12C2F
:100180006501E12C14E0F12E00E010E020E030E009
:10019000A9010E94D8070F900F900F900F90CB01EC
:1001A0001F910F91FF90EF90DF90CF90BF90AF9095
:1001B00008950E94A90090935701809356010895D5
:1001C0000F931F93CF93DF938C010E94A900EC0142
:1001D00090935301809352010E94A900801B910BC0
:1001E000181619062CF40E94A900801B910B06C05A
:1001F0000E94A9009801281B390BC9010297E4F15C
:10020000D0935301C09352016BE071E081E691E01D
:100210000E94D2064AE050E0BE0181E691E00E94D1
:1002200078070E94A900EC0180915201909153013E
:100230009E01281B390BC9014D96CB9768F6C01754
:10024000D10734F46FEF70E085E70E948C00C4CFD3
:100250000C171D0774F4C336D10559F06FEF70E029
:1002600089E00E94950360E070E08AE00E949503B7
:10027000B3CF0E94A400B0CF0E94A400DF91CF9121
:100280001F910F910C94D900CF92DF92EF92FF92C1
:100290000F931F93CF93DF93CDB7DEB762970FB65F
:1002A000F894DEBF0FBECDBF0E94A9008C010E9452
:1002B000D40280915601909157019801281B390B67
:1002C000C901265F3F4F25313105C8F5892BB9F1AA
:1002D000C0905401D0905501EE24D7FCE094FE2C40
:1002E0000E94D402C616D706E806F906A9F0C09007
:1002F0005401D0905501EE24D7FCE094FE2C0E94CE
:10030000D402C61AD70AE80AF90A35E0C316D1049E
:10031000E104F10468F513C00E94D402C0905401B6
:10032000D0905501EE24D7FCE094FE2C6C197D0989
:100330008E099F096530710581059105C8F41093F8
:100340005701009356010E94D402709355016093A7
:10035000540162960FB6F894DEBF0FBECDBFDF9199
:10036000CF911F910F91FF90EF90DF90CF90089564
:100370004AE0B801CE0107960E94DB0868E171E00F
:10038000CE0101960E948D08BE01695F7F4FCE01AC
:1003900001960E944609BC01CE010D960E94BA0842
:1003A000CE0101960E941F08CE0107960E941F08E9
:1003B000BE01635F7F4FCE0101960E94BA08CE0155
:1003C00001960E948700CE0101960E941F08CE016F
:1003D0000D960E941F08B3CF60E08EE00E941D04BE
:1003E00061E08AE00E941D0461E089E00E941D0432
:1003F00026E040E855E260E070E081E691E00E948E
:100400006F050C94D900CF92DF92EF92FF920F9379
:100410001F93CF93DF93CDB7DEB72C970FB6F89429
:10042000DEBF0FBECDBF81E691E00E948C0418169E
:1004300019060CF056C061E671E0CE0107960E94E5
:10044000BE076BE171E0CE0107960E945909811148
:1004500008C06EE171E0CE0107960E945909882319
:10046000C9F064EF71E080E090E00E94030362E273
:1004700071E0CE0101960E948D08CE0101960E9486
:100480008700CE0101960E941F08CE0107960E94A8
:100490001F0827C0CE0107960E9478096B017C01D6
:1004A0008B0161157105D1F00E94A9000817190789
:1004B000A9F084E6C816D10488F466E271E081E60A
:1004C00091E00E94D2064AE050E0B60181E691E058
:1004D0000E947807C6010E94E000D7CF0E94A900C1
:1004E000D4CF2C960FB6F894DEBF0FBECDBFDF91F0
:1004F000CF911F910F91FF90EF90DF90CF900895D3
:100500000E9403020E9444016AE070E080E090E0F3
:100510000C9403031F920F920FB60F9211242F9386
:100520003F938F939F93AF93BF9380915901909185
:100530005A01A0915B01B0915C013091580123E018
:10054000230F2D3720F40196A11DB11D05C026E80B
:10055000230F0296A11DB11D2093580180935901CC
:1005600090935A01A0935B01B0935C0180915D016F
:1005700090915E01A0915F01B09160010196A11D73
:10058000B11D80935D0190935E01A0935F01B093D4
:100590006001BF91AF919F918F913F912F910F90EB
:1005A0000FBE0F901F9018952FB7F89460915901C6
:1005B00070915A0180915B0190915C012FBF089569
:1005C0003FB7F89480915D0190915E01A0915F0129
:1005D000B091600126B5A89B05C02F3F19F0019688
:1005E000A11DB11D3FBF6627782F892F9A2F620F5B
:1005F000711D811D911D42E0660F771F881F991F95
:100600004A95D1F708958F929F92AF92BF92CF9261
:10061000DF92EF92FF926B017C010E94E0024B019E
:100620005C01C114D104E104F104F1F00E948309DA
:100630000E94E002681979098A099B09683E7340A3
:100640008105910570F321E0C21AD108E108F10893
:1006500088EE880E83E0981EA11CB11CC114D10441
:10066000E104F10429F7DDCFFF90EF90DF90CF9008
:10067000BF90AF909F908F900895789484B58260DA
:1006800084BD84B5816084BD85B5826085BD85B536
:10069000816085BDEEE6F0E0808181608083E1E8E5
:1006A000F0E010828081826080838081816080831D
:1006B000E0E8F0E0808181608083E1EBF0E0808120
:1006C00084608083E0EBF0E0808181608083EAE7F2
:1006D000F0E080818460808380818260808380817B
:1006E000816080838081806880831092C10008953A
:1006F0008E3008F08E50877020910A0190E4299F77
:1007000090011124822B80937C0080917A00806478
:1007100080937A0080917A0086FDFCCF80917800EA
:100720002091790090E0922B08951F93CF93DF934F
:10073000182FEB0161E00E941D04209711F460E086
:1007400004C0CF3FD10539F461E0812FDF91CF9113
:100750001F910C945604E12FF0E0E859FF4FE4910B
:10076000E330F9F048F4E130B9F0E230A1F584B5B6
:10077000806284BDC8BD34C0E730E9F0E83019F1CB
:10078000E43049F580918000806280938000D093AE
:100790008B00C0938A0024C084B5806884BDC7BD27
:1007A0001FC080918000806880938000D093890072
:1007B000C093880015C08091B00080688093B0001D
:1007C000C093B3000DC08091B00080628093B000F0
:1007D000C093B40005C0C038D1050CF0B5CFAFCF81
:1007E000DF91CF911F910895833081F028F48130FB
:1007F00099F08230A1F008958730A9F08830B9F0DF
:100800008430D1F4809180008F7D03C0809180007E
:100810008F7780938000089584B58F7702C084B568
:100820008F7D84BD08958091B0008F7703C0809143
:10083000B0008F7D8093B0000895CF93DF9390E058
:10084000FC01E458FF4F2491FC01E057FF4F8491D5
:10085000882349F190E0880F991FFC01E255FF4F72
:10086000A591B4918C559F4FFC01C591D4919FB730
:10087000611108C0F8948C91209582238C93888113
:1008800082230AC0623051F4F8948C91322F309553
:1008900083238C938881822B888304C0F8948C9165
:1008A000822B8C939FBFDF91CF9108950F931F935D
:1008B000CF93DF931F92CDB7DEB7282F30E0F90139
:1008C000E859FF4F8491F901E458FF4F1491F90161
:1008D000E057FF4F04910023C9F0882321F069837A
:1008E0000E94F4036981E02FF0E0EE0FFF1FEC554A
:1008F000FF4FA591B4919FB7F8948C91611103C0FB
:100900001095812301C0812B8C939FBF0F90DF91A5
:10091000CF911F910F910895FC01818D228D90E060
:10092000805C9F4F821B91098F7399270895FC016A
:10093000918D828D981731F0828DE80FF11D858D94
:1009400090E008958FEF9FEF0895FC01918D828DC7
:10095000981761F0828DDF01A80FB11D5D968C9113
:10096000928D9F5F9F73928F90E008958FEF9FEF1E
:10097000089589E296E0892B49F080E090E0892B88
:1009800029F00E94290681110C9400000895FC01B1
:10099000848DDF01A80FB11DA35ABF4F2C91848D08
:1009A00090E001968F739927848FA689B7892C933D
:1009B000A089B1898C9180648C93938D848D9813D8
:1009C00006C00288F389E02D80818F7D80830895A1
:1009D000CF93DF93EC01888D8823C9F0EA89FB89E6
:1009E000808185FD05C0A889B9898C9186FD0FC0DD
:1009F0000FB607FCF5CF808185FFF2CFA889B989B2
:100A00008C9185FFEDCFCE010E94C704E7CFDF9127
:100A1000CF910895CF92DF92FF920F931F93CF93C0
:100A2000DF931F92CDB7DEB76C0181E0D6015896F7
:100A30008C9358975B969C915B975C968C915C9796
:100A4000981307C05096ED91FC915197808185FDD8
:100A50002EC0F601038D10E00F5F1F4F0F7311279B
:100A6000F02EF601848DF81211C00FB607FCF9CFF5
:100A7000D6015096ED91FC915197808185FFF1CF81
:100A8000C60169830E94C7046981EBCF838DE80F9B
:100A9000F11DE35AFF4F6083D6015B960C935B9781
:100AA0005296ED91FC915397808180620CC0D601E3
:100AB0005696ED91FC91579760835096ED91FC917D
:100AC000519780818064808381E090E00F90DF9176
:100AD000CF911F910F91FF90DF90CF900895BF921B
:100AE000CF92DF92EF92FF92CF93DF93EC016A01F6
:100AF0007B01B22EE889F98982E08083411581EE7D
:100B0000580761057105A1F060E079E08DE390E0A0
:100B1000A70196010E949409215031094109510908
:100B20005695479537952795211580E1380798F018
:100B3000E889F989108260E874E88EE190E0A70105
:100B400096010E9494092150310941095109569595
:100B5000479537952795EC85FD853083EE85FF8594
:100B60002083188EEC89FD89B082EA89FB89808117
:100B700080618083EA89FB89808188608083EA893B
:100B8000FB89808180688083EA89FB8980818F7DF1
:100B90008083DF91CF91FF90EF90DF90CF90BF9057
:100BA00008951F920F920FB60F9211242F938F93D7
:100BB0009F93EF93FF93E0917101F0917201808117
:100BC000E0917701F091780182FD12C090818091CF
:100BD0007A018F5F8F7320917B01821751F0E09132
:100BE0007A01F0E0EF59FE4F958F80937A0101C0B2
:100BF0008081FF91EF919F918F912F910F900FBE68
:100C00000F901F9018951F920F920FB60F921124FC
:100C10002F933F934F935F936F937F938F939F9304
:100C2000AF93BF93EF93FF9381E691E00E94C704D7
:100C3000FF91EF91BF91AF919F918F917F916F91B4
:100C40005F914F913F912F910F900FBE0F901F908A
:100C5000189581E691E00E948C0421E0892B09F42B
:100C600020E0822F0895109264011092630188EEB3
:100C700093E0A0E0B0E08093650190936601A093BB
:100C80006701B093680184E391E0909362018093DF
:100C9000610185EC90E090936E0180936D0184EC8E
:100CA00090E09093700180936F0180EC90E09093BE
:100CB00072018093710181EC90E0909374018093B4
:100CC000730182EC90E0909376018093750186EC3D
:100CD00090E0909378018093770110927A011092BE
:100CE0007B0110927C0110927D01089508950E946D
:100CF0003D030E9476060E94EC01C9EBD4E00E94FD
:100D000080022097E1F30E94B904F9CFCF92DF92DD
:100D1000EF92FF920F931F93CF93DF937C016A01B1
:100D2000EB0100E010E00C151D0571F06991D70191
:100D3000ED91FC910190F081E02DC7010995892B7F
:100D400019F00F5F1F4FEFCFC801DF91CF911F91B7
:100D50000F91FF90EF90DF90CF900895611571058E
:100D600081F0DB010D900020E9F7AD014150510900
:100D7000461B570BDC01ED91FC910280F381E02DC5
:100D8000099480E090E00895DC01ED91FC91DB0195
:100D900014964D915C9115976D917C910280F38131
:100DA000E02D09940C94AE06DC01ED91FC910190CC
:100DB000F081E02D099460E471E00C94AE068F920E
:100DC0009F92AF92BF92DF92EF92FF920F931F9389
:100DD000CF93DF93CDB7DEB7A1970FB6F894DEBF00
:100DE0000FBECDBF7C01F42FD52ECB0119A222302E
:100DF00008F42AE08E010F5D1F4F822E912CA12C4A
:100E0000B12C6F2F7D2DA50194010E949409F22F22
:100E1000D32ECA01015011096A3014F4E0E301C075
:100E2000E7E3E60FD801EC93232B242B252B49F77E
:100E3000B801C7010E94AE06A1960FB6F894DEBFB6
:100E40000FBECDBFDF91CF911F910F91FF90EF901B
:100E5000DF90BF90AF909F908F900895CF92DF92D8
:100E6000EF92FF920F931F93CF93DF93EC016A01F0
:100E70007B012115310579F4E881F9810190F08138
:100E8000E02D642FDF91CF911F910F91FF90EF9094
:100E9000DF90CF9009942A303105E9F477FF1AC02A
:100EA0006DE20E94D4068C0144275527BA014C19E3
:100EB0005D096E097F092AE0CE010E94DF06800FDE
:100EC000911FDF91CF911F910F91FF90EF90DF90D5
:100ED000CF9008952AE0B701A601CE01DF91CF910E
:100EE0001F910F91FF90EF90DF90CF900C94DF0651
:100EF0000F931F93CF93DF93EC019A01AB01662709
:100F000057FD6095762F0E942E078C01CE010E941E
:100F1000DB06800F911FDF91CF911F910F910895F4
:100F20000F931F93CF93DF93EC010E94D402688745
:100F300079878A879B87E881F9810680F781E02D90
:100F4000CE01099597FF15C00E94D4020885198526
:100F50002A853B85601B710B820B930B0C811D81D5
:100F60002E813F81601771078207930720F38FEF6F
:100F70009FEFDF91CF911F910F9108950F931F93D2
:100F8000CF93DF93EC018B0162E471E00E948D0846
:100F9000C8010E94900797FD05C0682FCE010E94EE
:100FA0003309F6CFCE01DF91CF911F910F910895B4
:100FB0004F925F926F927F92AF92BF92CF92DF92E9
:100FC000EF92FF920F931F93CF93DF93CDB7DEB7CE
:100FD00029013A01621B730B840B950B29893A890D
:100FE0004B895C892A193B094C095D09298B3A8B8D
:100FF0004B8B5C8B9B01AC0169897A898B899C89BD
:101000000E948409E418F50806091709A801970148
:101010000E94B6092A0D3B1D4C1D5D1DCA01B90178
:10102000DF91CF911F910F91FF90EF90DF90CF90C4
:10103000BF90AF907F906F905F904F900895FC01AC
:10104000808191810C948D0ACF93DF93EC0188818C
:101050009981009711F00E948D0A198218821D82D1
:101060001C821B821A82DF91CF9108950F931F93E8
:10107000CF93DF93EC018B016F5F7F4F8881998164
:101080000E941C0B009731F0998388831B830A838D
:1010900081E001C080E0DF91CF911F910F91089511
:1010A000CF93DF93EC0188819981892B29F08A8184
:1010B0009B818617970760F4CE010E94360888232B
:1010C00041F08C819D81892B19F4E881F98110828E
:1010D00081E0DF91CF910895EF92FF920F931F93DC
:1010E000CF93DF93EC017B018A01BA010E94500883
:1010F000811104C0CE010E94240807C01D830C8307
:10110000B701888199810E941F0CCE01DF91CF9198
:101110001F910F91FF90EF900895FC0111821082B2
:1011200013821282158214826115710559F0FB0138
:1011300001900020E9F7AF0141505109461B570BC0
:101140000C946C080895CF93DF93EC01FB01861794
:10115000970761F0608171816115710529F0448103
:1011600055810E946C0802C00E942408CE01DF91C4
:10117000CF910895FC011182108213821282158290
:1011800014820C94A308CF93DF93EC0161157105D1
:1011900061F0FB0101900020E9F7AF0141505109D6
:1011A000461B570B0E946C0802C00E942408CE0107
:1011B000DF91CF9108950F931F93CF93DF93CDB716
:1011C000DEB762970FB6F894DEBF0FBECDBF8C01BD
:1011D000CB01F801118210821382128215821482CF
:1011E00050E0BE016F5F7F4F0E94260CBE016F5F13
:1011F0007F4FC8010E94C30862960FB6F894DEBF05
:101200000FBECDBFDF91CF911F910F910895EF9247
:10121000FF920F931F93CF93DF93EC017B010C811F
:101220001D816115710511F480E016C0411551054D
:1012300091F0040F151FB8010E9450088823A1F3F4
:10124000288139818C819D81B701820F931F0E9473
:101250001F0C1D830C8381E0DF91CF911F910F91B3
:10126000FF90EF900895CF93DF9300D0CDB7DEB716
:1012700069831A8241E050E0BE016F5F7F4F0E9498
:1012800007090F900F90DF91CF910895CF93DF93CF
:10129000EC01FB0144815581608171810E94070945
:1012A000811103C0CE010E942408CE01DF91CF91AD
:1012B0000895FC0124813581232B31F421E061154F
:1012C0007105A1F0FB0108C0FC01808191816115CD
:1012D000710531F421E0FC018081882339F005C0DB
:1012E0000E94160C21E0892B09F020E0822F08953E
:1012F000FC0180819181009711F00C94E60B60E075
:1013000070E0CB0108950895DB018F939F930E94B5
:10131000D509BF91AF91A29F800D911DA39F900D04
:10132000B29F900D11240895A1E21A2EAA1BBB1B97
:10133000FD010DC0AA1FBB1FEE1FFF1FA217B307A1
:10134000E407F50720F0A21BB30BE40BF50B661FB7
:10135000771F881F991F1A9469F76095709580957B
:1013600090959B01AC01BD01CF010895052E97FB1F
:101370001EF400940E94CD0957FD07D00E949409E5
:1013800007FC03D04EF40C94CD0950954095309550
:1013900021953F4F4F4F5F4F0895909580957095E1
:1013A00061957F4F8F4F9F4F08950E94E609A59F3B
:1013B000900DB49F900DA49F800D911D1124089550
:1013C000EE0FFF1F0590F491E02D0994A29FB0014C
:1013D000B39FC001A39F700D811D1124911DB29F69
:1013E000700D811D1124911D0895CF93DF938230DC
:1013F000910510F482E090E0E0910002F09101028A
:1014000020E030E0A0E0B0E0309739F14081518138
:1014100048175907B8F04817590771F4828193812A
:10142000109729F013969C938E9312972CC090934B
:1014300001028093000227C02115310531F04217C7
:10144000530718F0A901DB0101C0EF019A01BD01AA
:10145000DF010280F381E02DD7CF21153105F9F0AE
:10146000281B390B2430310580F48A819B8161155A
:10147000710521F0FB019383828304C090930102E4
:1014800080930002FE01329644C0FE01E20FF31F7A
:101490008193919322503109398328833AC0209156
:1014A000FE013091FF01232B41F420910201309184
:1014B00003013093FF012093FE0120910001309140
:1014C00001012115310541F42DB73EB740910401CA
:1014D00050910501241B350BE091FE01F091FF01B5
:1014E000E217F307A0F42E1B3F0B2817390778F0FB
:1014F000AC014E5F5F4F2417350748F04E0F5F1F5A
:101500005093FF014093FE018193919302C0E0E06C
:10151000F0E0CF01DF91CF910895CF93DF93009753
:1015200009F487C0FC01329713821282C091000235
:10153000D0910102209781F420813181280F391F39
:101540008091FE019091FF018217930779F5F09346
:10155000FF01E093FE016DC0DE0120E030E0AE1738
:10156000BF0750F412964D915C9113979D01411560
:10157000510509F1DA01F3CFB383A2834081518190
:10158000840F951F8A179B0771F48D919C91119779
:10159000840F951F02969183808312968D919C9162
:1015A0001397938382832115310529F4F093010267
:1015B000E09300023EC0D9011396FC93EE9312977C
:1015C0004D915D91A40FB51FEA17FB0779F4808157
:1015D0009181840F951F0296D90111969C938E9349
:1015E0008281938113969C938E931297E0E0F0E0B2
:1015F0008A819B81009719F0FE01EC01F9CFCE01A1
:10160000029628813981820F931F2091FE0130912B
:10161000FF012817390769F4309729F41092010265
:101620001092000202C013821282D093FF01C09375
:10163000FE01DF91CF910895A0E0B0E0E2E2FBE08F
:101640000C947F0CEC01CB01209719F40E94F50952
:10165000B8C0FE01E60FF71F9E0122503109E217C4
:10166000F30708F4ACC0D9010D911C91119706172E
:101670001707B8F00530110508F49FC0A8014450C1
:1016800051094617570708F498C002501109061B64
:10169000170B019311936D937C93CF010E948D0AD8
:1016A0008CC05B01A01AB10A4E01800E911EA09160
:1016B0000002B0910102612C712C60E070E0109783
:1016C00009F449C0A815B905C9F5ED90FC9011972A
:1016D000670142E0C40ED11CCA14DB0478F1470153
:1016E0008A189B08640142E0C40ED11C1296BC907B
:1016F00012971396AC91B5E0CB16D10440F0B282AC
:10170000A38391828082D9018D939C9309C00E5F3F
:101710001F4F0E0D1F1DF90111830083EB2DFA2FB2
:101720006115710531F0DB011396FC93EE9312976E
:1017300044C0F0930102E09300023FC06D917C91A0
:1017400011976616770608F43B01BD0112960D90BD
:10175000BC91A02DB4CF6091FE017091FF0168157E
:101760007905E9F468167906D0F4409100015091AA
:1017700001014115510541F44DB75EB76091040177
:1017800070910501461B570BE417F507C0F4F09361
:10179000FF01E093FE01F901918380830EC00E9456
:1017A000F5097C01009759F0A801BE010E940D0CBB
:1017B000CE010E948D0AC70104C0CE0102C080E0A4
:1017C00090E0CDB7DEB7EEE00C949B0C1F93FC01CC
:1017D00099278827BC01E89411911032E9F3193058
:1017E00010F01E30C8F31B3251F01D3249F46894DA
:1017F00006C00E943C0C610F711D811D911D11914D
:1018000010531A30B0F33EF4909580957095619521
:101810007F4F8F4F9F4F1F910895FB01DC0102C046
:1018200001900D9241505040D8F70895FB01DC0122
:101830008D91019080190110D9F3990B0895FB0146
:10184000DC0101900D920020E1F708954532510529
:1018500020F4423010F00C94310CFB011082CB01CB
:101860000895BB274A3031F4992322F4BDE29095C4
:1018700081959F4F0C94520C592F482F372F262FAC
:10188000660F771F881F991F660F771F881F991F84
:10189000620F731F841F951F660F771F881F991F84
:1018A0000895BB27FB015527AA27880F991FAA1F58
:1018B000A41710F0A41B83955051B9F7A05DAA336B
:1018C00008F0A95DA193009779F7B111B193119236
:1018D000CB010C946B0CDC01FC01672F7191772319
:1018E000E1F7329704C07C916D9370836291AE17DB
:1018F000BF07C8F308952F923F924F925F926F9265
:101900007F928F929F92AF92BF92CF92DF92EF928F
:10191000FF920F931F93CF93DF93CDB7DEB7CA1B10
:10192000DB0B0FB6F894DEBF0FBECDBF09942A883B
:10193000398848885F846E847D848C849B84AA84E3
:10194000B984C884DF80EE80FD800C811B81AA8170
:10195000B981CE0FD11D0FB6F894DEBF0FBECDBF3B
:08196000ED010895F894FFCF9A
:1019680000000202800001000000014375727265E8
:101978006E7420706F73200053310043520043523D
:101988000A0041434B00476F696E6720746F20005F
:10199800000000000A0586068C04A5049704E804E4
:1019A8000D0A006E616E00696E66006F7666002E25
:0219B80000002D
:00000001FF
